:020000040800F2
:10000000486E0020F9010008D162000889530008F9
:10001000CD62000865040008E17E000800000000D1
:10002000000000000000000000000000E97200086D
:1000300089040008000000004163000841730008C3
:10004000130200081302000813020008130200083C
:10005000130200081302000813020008130200082C
:10006000130200081302000813020008130200081C
:1000700013020008130200086904000813020008B4
:100080007904000813020008130200081302000894
:1000900013020008130200081302000813020008EC
:1000A00013020008130200081302000813020008DC
:1000B00013020008130200081302000813020008CC
:1000C00013020008130200081302000813020008BC
:1000D00013020008B17E0008C17E0008D17E00082E
:1000E000130200081302000813020008130200089C
:1000F000130200081302000813020008130200088C
:10010000130200081302000813020008130200087B
:100110001302000813020008BD730008CD73000825
:10012000130200081302000813020008130200085B
:1001300000F002F800F050F814A696E8000CB24463
:10014000B344DA4501D100F047F8BAE80F000FA632
:1001500096E83000A5EB040504EB0607AAEB0704BC
:10016000A7F101074FEA15154FEA3414A4F1010471
:10017000AC4201D300F030F813F0010F18BFFB1AA6
:1001800043F0010300F001F8DBE71847B01201006B
:10019000D0120100103A24BF78C878C1FAD85207AB
:1001A00024BF30C830C144BF04680C6070470000F1
:1001B000704700000023002400250026103A28BFC5
:1001C00078C1FBD8520728BF30C148BF0B607047C9
:1001D0001FB51FBD10B510BD00F08EF81146FFF71A
:1001E000F7FF0CF0FBFD00F0ACF803B4FFF7F2FFF3
:1001F00003BC00F0AFF800000948804709480047F9
:10020000FEE7FEE7FEE7FEE7FEE7FEE7FEE7FEE7C6
:10021000FEE7FEE704480549054A064B7047000023
:10022000B973000831010008483E0020486E0020E4
:10023000484E0020484E00204FF000020429C0F034
:10024000128010F0030C00F01B80CCF1040CBCF108
:10025000020F18BF00F8012BA8BF20F8022BA1EB5A
:100260000C0100F00DB85FEAC17C24BF00F8012B3F
:1002700000F8012B48BF00F8012B70474FF0000237
:1002800000B5134694469646203922BFA0E80C508C
:10029000A0E80C50B1F12001BFF4F7AF090728BF67
:1002A000A0E80C5048BF0CC05DF804EB890028BFE3
:1002B00040F8042B08BF704748BF20F8022B11F00C
:1002C000804F18BF00F8012B704770477047704788
:1002D00010B500F009F8006810BD10B5044600F034
:1002E00003F8046010BD00000048704700010020C2
:1002F00000487047000100207546FFF7F9FFAE4641
:1003000005006946534620F00700854618B020B521
:10031000FFF780FFBDE820404FF000064FF00007D8
:100320004FF000084FF0000BAC46ACE8C009ACE859
:10033000C009ACE8C009ACE8C00921F007018D464E
:10034000704710B50446AFF300802046BDE810406A
:10035000FFF74BBF01491820ABBEFEE726000200A5
:100360007047000080B582B00190019942F62C00E0
:10037000C2F2000003F026F802B080BD80B542F65C
:100380002C00C2F2000003F043F8043818BF01202B
:1003900080BD000080B582B000208DF8060000F01E
:1003A00019F8012804D0FFE701208DF807000CE0C0
:1003B00042F62C00C2F2000003F044F88DF806006B
:1003C0009DF806008DF80700FFE79DF8070002B0D2
:1003D00080BD000081B001208DF803009DF803006E
:1003E00001B0704780B586B00590049103920293E6
:1003F00000208DF807000599049A039B0298EC46AB
:10040000CCF8000042F62C00C2F2000003F030F9F4
:1004100020B1FFE701208DF80700FFE79DF80700F6
:1004200006B080BD80B586B005900491039202931A
:1004300000208DF807000599049A039B0298EC466A
:10044000CCF8000042F62C00C2F2000003F014FBCE
:1004500020B1FFE701208DF80700FFE79DF80700B6
:1004600006B080BDFFE7FEE780B542F2F860C2F259
:10047000000000F027FA80BD80B542F23C70C2F265
:10048000000000F01FFA80BD7047000081B0EFF35C
:10049000108072B60090FFE7FEE7000080B582B0E2
:1004A0000190009101980099002200F003F802B039
:1004B00080BD000084B0039002918DF807200120D8
:1004C0008DF8060000208DF8050042F2D860C2F2D7
:1004D0000000407A012827DCFFE742F2D863C2F22D
:1004E00000030093597A0020585403995A7A03EB79
:1004F000820251609DF807105A7A1A441172597A93
:100500004A1C5A728DF805109DF805103031029A78
:100510001170029A3A215170029A2F21917002991A
:10052000C8708DF80600FFE79DF8060004B070471C
:1005300083B0019000208DF80300019890F821000D
:1005400002280DD0FFE7019904208863FFE7019995
:10055000002081F82000FFE701208DF80B0021E04A
:1005600001980168086820F00E0008600198016891
:10057000086820F0010008600198C16B026C01203E
:1005800090404860FFE70199012081F82100FFE7D2
:100590000199002081F82000FFE79DF803008DF805
:1005A0000B00FFE79DF80B0003B0704780B596B0D5
:1005B000159000208DF85300159890F8210002281E
:1005C00007D0FFE715990420886301208DF85300B8
:1005D00074E115980168086820F00E00086015980D
:1005E0000168086820F00100086015980068812102
:1005F000C4F202018842C0F0A880FFE715980068A5
:100600000821C4F20201884203D1FFE701201390C0
:1006100094E0159800681C21C4F20201884203D1BD
:10062000FFE71020129086E0159800683021C4F290
:100630000201884204D1FFE74FF48070119077E007
:10064000159800684421C4F20201884204D1FFE7F2
:100650004FF48050109068E0159800685821C4F25B
:100660000201884204D1FFE74FF480300F9059E037
:10067000159800686C21C4F20201884204D1FFE79A
:100680004FF480100E904AE0159800688021C4F263
:100690000201884204D1FFE74FF080700D903BE0EB
:1006A0001598006840F20841C4F20201884203D163
:1006B000FFE701200C902CE01598006840F21C41E7
:1006C000C4F20201884203D1FFE710200B901DE025
:1006D0001598006840F23041C4F20201884204D10A
:1006E000FFE74FF480700A900DE01598016840F222
:1006F0004442C4F202024FF48030914208BF4FF4EA
:1007000080500A90FFE70A980B90FFE70B980C9037
:10071000FFE70C980D90FFE70D980E90FFE70E98FD
:100720000F90FFE70F981090FFE710981190FFE7E8
:1007300011981290FFE712981390FFE7139840F278
:100740000441C4F202010860A5E015980068082180
:10075000C4F20201884203D1FFE70120099094E02E
:10076000159800681C21C4F20201884203D1FFE7FA
:100770001020089086E0159800683021C4F202012C
:10078000884204D1FFE74FF48070079077E0159816
:1007900000684421C4F20201884204D1FFE74FF40B
:1007A0008050069068E0159800685821C4F2020154
:1007B000884204D1FFE74FF48030059059E0159846
:1007C00000686C21C4F20201884204D1FFE74FF4B3
:1007D000801004904AE0159800688021C4F202015C
:1007E000884204D1FFE74FF0807003903BE01598FA
:1007F000006840F20841C4F20201884203D1FFE7D9
:10080000012002902CE01598006840F21C41C4F2CF
:100810000201884203D1FFE7102001901DE01598E6
:10082000006840F23041C4F20201884204D1FFE77F
:100830004FF4807000900DE01598016840F244423A
:10084000C4F202024FF48030914208BF4FF480504E
:100850000090FFE700980190FFE701980290FFE702
:1008600002980390FFE703980490FFE7049805902F
:10087000FFE705980690FFE706980790FFE70798BF
:100880000890FFE708980990FFE709980421C4F24F
:1008900002010860FFE71599012081F82100FFE7B8
:1008A0001599002081F82000FFE71598406B20B1D2
:1008B000FFE71598416B8847FFE7FFE79DF8530076
:1008C00016B080BD80B5ACB02B902B98C06B006883
:1008D0002A902B980068006829902A982B99096C17
:1008E000C8404007002840F17581FFE79DF8A4004B
:1008F0004007002840F16E81FFE72B9800680068F0
:100900008006002807D4FFE72B980168086820F0CC
:1009100004000860FFE72B9800688121C4F20201FF
:100920008842C0F0A880FFE72B9800680821C4F235
:100930000201884203D1FFE70420289094E02B981D
:1009400000681C21C4F20201884203D1FFE7402065
:10095000279086E02B9800683021C4F2020188427B
:1009600004D1FFE74FF48060269077E02B98006871
:100970004421C4F20201884204D1FFE74FF48040D1
:10098000259068E02B9800685821C4F20201884243
:1009900004D1FFE74FF48020249059E02B980068A1
:1009A0006C21C4F20201884204D1FFE74FF48000B9
:1009B00023904AE02B9800688021C4F2020188420B
:1009C00004D1FFE74FF0806022903BE02B98006855
:1009D00040F20841C4F20201884203D1FFE704203B
:1009E00021902CE02B98006840F21C41C4F20201D7
:1009F000884203D1FFE7402020901DE02B9800683B
:100A000040F23041C4F20201884204D1FFE74FF4C2
:100A100080601F900DE02B98016840F24442C4F2C0
:100A200002024FF48020914208BF4FF480401F9093
:100A3000FFE71F982090FFE720982190FFE721987B
:100A40002290FFE722982390FFE723982490FFE766
:100A500024982590FFE725982690FFE72698279071
:100A6000FFE727982890FFE7289840F20441C4F256
:100A700002010860A5E02B9800680821C4F2020179
:100A8000884203D1FFE704201E9094E02B98006871
:100A90001C21C4F20201884203D1FFE740201D90CF
:100AA00086E02B9800683021C4F20201884204D10C
:100AB000FFE74FF480601C9077E02B98006844219A
:100AC000C4F20201884204D1FFE74FF480401B903A
:100AD00068E02B9800685821C4F20201884204D1D2
:100AE000FFE74FF480201A9059E02B9800686C21A2
:100AF000C4F20201884204D1FFE74FF4800019904C
:100B00004AE02B9800688021C4F20201884204D197
:100B1000FFE74FF0806018903BE02B98006840F2B0
:100B20000841C4F20201884203D1FFE70420179074
:100B30002CE02B98006840F21C41C4F2020188426C
:100B400003D1FFE7402016901DE02B98006840F28B
:100B50003041C4F20201884204D1FFE74FF48060C3
:100B600015900DE02B98016840F24442C4F2020255
:100B70004FF48020914208BF4FF480401590FFE76A
:100B800015981690FFE716981790FFE7179818909A
:100B9000FFE718981990FFE719981A90FFE71A983D
:100BA0001B90FFE71B981C90FFE71C981D90FFE728
:100BB0001D981E90FFE71E980421C4F202010860F0
:100BC000FFE72B98C06A20B1FFE72B98C16A8847DE
:100BD000FFE7B7E12A982B99096CC84080070028E5
:100BE00040F17F81FFE79DF8A4008007002840F1D5
:100BF0007881FFE72B9800680068800600280BD4F6
:100C0000FFE72B980168086820F00A0008602B991C
:100C1000012081F82100FFE72B9800688121C4F2B0
:100C200002018842C0F0A880FFE72B9800680821E5
:100C3000C4F20201884203D1FFE70220149094E03D
:100C40002B9800681C21C4F20201884203D1FFE7FF
:100C50002020139086E02B9800683021C4F2020116
:100C6000884204D1FFE74FF40070129077E02B9890
:100C700000684421C4F20201884204D1FFE74FF426
:100C80000050119068E02B9800685821C4F20201CE
:100C9000884204D1FFE74FF40030109059E02B98C0
:100CA00000686C21C4F20201884204D1FFE74FF4CE
:100CB00000100F904AE02B9800688021C4F20201D6
:100CC000884204D1FFE74FF000700E903BE02B9874
:100CD000006840F20841C4F20201884203D1FFE7F4
:100CE00002200D902CE02B98006840F21C41C4F2C9
:100CF0000201884203D1FFE720200C901DE02B98D1
:100D0000006840F23041C4F20201884204D1FFE79A
:100D10004FF400700B900DE02B98016840F24442B4
:100D2000C4F202024FF40030914208BF4FF4005069
:100D30000B90FFE70B980C90FFE70C980D90FFE7E6
:100D40000D980E90FFE70E980F90FFE70F98109008
:100D5000FFE710981190FFE711981290FFE71298A3
:100D60001390FFE713981490FFE7149840F20441A2
:100D7000C4F202010860A5E02B9800680821C4F2C3
:100D80000201884203D1FFE702200A9094E02B98E9
:100D900000681C21C4F20201884203D1FFE7202031
:100DA000099086E02B9800683021C4F20201884245
:100DB00004D1FFE74FF40070089077E02B980068AB
:100DC0004421C4F20201884204D1FFE74FF40050ED
:100DD000079068E02B9800685821C4F2020188420D
:100DE00004D1FFE74FF40030069059E02B980068DB
:100DF0006C21C4F20201884204D1FFE74FF40010D5
:100E000005904AE02B9800688021C4F202018842D4
:100E100004D1FFE74FF0007004903BE02B9800688E
:100E200040F20841C4F20201884203D1FFE70220E8
:100E300003902CE02B98006840F21C41C4F20201A0
:100E4000884203D1FFE7202002901DE02B98006824
:100E500040F23041C4F20201884204D1FFE74FF46E
:100E6000007001900DE02B98016840F24442C4F2FA
:100E700002024FF40030914208BF4FF4005001903D
:100E8000FFE701980290FFE702980390FFE70398BD
:100E90000490FFE704980590FFE705980690FFE7A8
:100EA00006980790FFE707980890FFE708980990D1
:100EB000FFE709980A90FFE70A980421C4F20201AB
:100EC0000860FFE7FFE72B99002081F82000FFE78B
:100ED0002B98806A20B1FFE72B98816A8847FFE74B
:100EE0002FE02A982B99096CC8400007002827D5C5
:100EF000FFE79DF8A4000007002821D5FFE72B9805
:100F00000168086820F00E0008602B98C26B016C25
:100F1000012000FA01F151602B9988632B9981F827
:100F20002100FFE72B99002081F82000FFE72B9894
:100F3000006B20B1FFE72B98016B8847FFE7FFE7C5
:100F4000FFE7FFE72CB080BD83B001900020009048
:100F5000019820B9FFE701208DF80B006AE00198A5
:100F6000006840F20741C4F20201884218D8FFE746
:100F7000019908684FF6F872CBF6FD7210444CF6F2
:100F8000CD42CCF6CC42A0FB02026FF0030000EA97
:100F90009200086401990020C4F20200C86318E0BE
:100FA000019908684FF6F832CBF6FD7210444CF602
:100FB000CD42CCF6CC42A0FB02026FF0030000EA67
:100FC00092000864019940F20040C4F20200C86334
:100FD000FFE70199022081F821000198006800686C
:100FE0000090009843F6F07188430090019948689A
:100FF000D1F808C0CB680A6940EA0C0018431043D6
:101000004A6910438A691043C9690143009808433B
:101010000090009801990968086001990020886390
:10102000019A012182F82110019981F820008DF8A0
:101030000B00FFE79DF80B0003B0704780B584B04C
:10104000039000F0F5F902900398019001980130A7
:1010500048B1FFE740F2F800C2F2000001780198C1
:1010600008440190FFE7FFE700F0E2F90299401A17
:101070000199884201D2FFE7F6E704B080BD000085
:1010800092B01190109100200F900B90FFE71098F4
:1010900000680F99C840002800F09B81FFE70F9976
:1010A000012088400E90109800680E9908400D901D
:1010B0000D980E99884240F08881FFE710984068AB
:1010C0000790002851D0FFE7079801283AD0FFE7A2
:1010D000079802283FD0FFE7079803285FD0FFE773
:1010E0000798112832D0FFE70798122838D0FFE779
:1010F00007980021C1F21101884236D0FFE7079816
:101100000021C1F2120188422FD0FFE70798002189
:10111000C1F22101884228D0FFE707980021C1F2DF
:101120002201884221D0FFE707980021C1F2310156
:1011300088421AD0FFE707980021C1F232018842A5
:1011400013D02FE01098C0680B902CE01098C06866
:1011500004300B9027E01098C06808300B9022E014
:101160001098C0680C300B901DE01098806818B97A
:10117000FFE704200B9011E010988068012806D149
:10118000FFE708200B900E981199086105E00820F0
:101190000B900E9811994861FFE7FFE703E00020EC
:1011A0000B9000E0FFE70D98FF2803D8FFE71198A8
:1011B000069003E0119804300690FFE706980A9025
:1011C0000D98FF2804D8FFE70F988000059006E0EF
:1011D0000F996FF01F0000EB81000590FFE7059865
:1011E00009900A980068099A0F21914088430B9949
:1011F000914008430A9908601098C079C0060028F9
:1012000040F1E280FFE7FFE741F21800C4F202007C
:10121000016841F001010160006800F001000890E0
:101220000898FFE70F9820F003000821C4F201019D
:1012300040580C900F9800F0030081000F2000FA36
:1012400001F10C9888430C90119840F60001C4F20B
:101250000101884203D1FFE70020049042E0119889
:1012600040F60041C4F20101884203D1FFE70120AA
:10127000039034E0119841F20001C4F20101884268
:1012800003D1FFE70220029026E0119841F20041CD
:10129000C4F20101884203D1FFE70320019018E066
:1012A000119841F60001C4F20101884203D1FFE721
:1012B000042000900AE0119941F60042C4F20102B4
:1012C0000620914208BF05200090FFE7009801909A
:1012D000FFE701980290FFE702980390FFE7039869
:1012E0000490FFE704980F9901F00301890000FAC8
:1012F00001F10C9808430C900C980F9921F0030110
:101300000822C4F20102885010988079C006002893
:1013100009D5FFE70D9A40F20841C4F201010868BF
:101320001043086008E00D9A40F20841C4F2010140
:10133000086890430860FFE71098807980060028CD
:1013400009D5FFE70D9A40F20C41C4F2010108688B
:101350001043086008E00D9A40F20C41C4F201010C
:10136000086890430860FFE710988079800700289C
:1013700009D5FFE70D9A40F20441C4F20101086863
:101380001043086008E00D9A40F20441C4F20101E4
:10139000086890430860FFE710988079C00748B15B
:1013A000FFE70D9A40F20041C4F2010108681043C2
:1013B000086008E00D9A40F20041C4F2010108689B
:1013C00090430860FFE7FFE7FFE70F9801300F90B9
:1013D0005DE612B07047000083B00290ADF80610D1
:1013E0000298C0680090009ABDF8060002EA000169
:1013F000904340EA01400299086103B07047000041
:1014000082B00190ADF802108DF801209DF8010026
:1014100028B1FFE7BDF802000199086105E0BDF8B9
:101420000200000401990861FFE702B07047000064
:1014300043F64460C2F200000068704780B58EB089
:101440000C900C9820B9FFE701208DF8370043E19C
:101450000C9890F83D0040B9FFE70C99002081F806
:101460003C000C9801F048F8FFE70C99242081F823
:101470003D000C980168086820F0010008600C9895
:101480000168086840F4004008600C98016808682A
:1014900020F40040086001F08FFA0A900C98406830
:1014A00048F2A061C0F2010188420BD8FFE70A9917
:1014B00048F28042C0F21E020020914238BF012053
:1014C00009900AE00A9940F60012C0F23D0200209D
:1014D000914238BF01200990FFE70998012804D103
:1014E000FFE701208DF83700F6E00A984DF683619A
:1014F000C4F21B31A0FB0110800C0B900C9800680B
:10150000406820F03F000B9908430C990968486037
:101510000C980068006A20F03F0008900C98406822
:1015200048F2A061C0F20101884204D8FFE70B989D
:10153000013007900EE00B984FF49671484344F643
:10154000D351C1F26201A0FB0101012000EB911017
:101550000790FFE70898079908430C990968086203
:101560000C980068C0694CF6FF71884306900C988F
:10157000406848F2A061C0F2010188421FD8FFE72D
:101580000A9801380C9949684900B0FBF1F0013024
:101590006FF31F30032803D8FFE7042005900BE00A
:1015A0000A9801380C9949684900B0FBF1F0013004
:1015B0006FF31F300590FFE7059804904CE00C98FE
:1015C000806868B9FFE70A9801380C99496801EB0F
:1015D0004101B0FBF1F001306FF31F3003900DE0DB
:1015E0000A9801380C99496819225143B0FBF1F06F
:1015F0000130042161F31F300390FFE703980005D9
:1016000018B9FFE70120029023E00C98806868B9C0
:10161000FFE70A9801380C99496801EB4101B0FBDA
:10162000F1F001306FF31F3001900DE00A9801389E
:101630000C99496819225143B0FBF1F001300421A3
:1016400061F31F300190FFE7019840F400400290E1
:10165000FFE702980490FFE70698049908430C9965
:101660000968C8610C980068006820F0C0000C9BF5
:101670001968DA691B6A1A43104308600C980068FD
:10168000806848F2FF3188430C9A1168D368126968
:101690001A43104388600C980068C06820F0FF006F
:1016A0000C9B19685A699B691A431043C8600C98CF
:1016B0000168086840F0010008600C990020086487
:1016C0000C9A202182F83D100C9908630C9981F83E
:1016D0003E008DF83700FFE79DF837000EB080BD63
:1016E00080B58CB00A90ADF8261008920793FFF7EA
:1016F0009FFE0690002005900A9890F83D00202853
:1017000040F02B81FFE70A9806996A461160022192
:10171000C0F210010122192304F012F920B1FFE7F1
:1017200002208DF82F001CE1FFE70A9890F83C009A
:10173000012804D1FFE702208DF82F0011E10A995A
:10174000012081F83C00FFE7FFE70A980068006885
:10175000C00738B9FFE70A980168086840F001003F
:101760000860FFE70A980168086820F400600860D4
:101770000A99242081F83D000A99002008640A99FA
:101780000020CFF6FF70C862FFE70A98016808687A
:1017900040F4807008600A98079B06996A461160B9
:1017A0004FF00111002204F0CBF880B1FFE70A9856
:1017B00000680068C005002805D5FFE70A994FF4C6
:1017C00000700864FFE703208DF82F00C9E0BDF822
:1017D000260000F0FE000A9909680861FFF728FE5C
:1017E00006900A9800684069C0F340008DF8130025
:1017F0000A9800684069C0F380208DF81200FFE766
:101800000A9890F83D100020A02902900DD0FFE723
:101810009DF813100020029039B9FFE79DF81200DF
:10182000B0FA80F040090290FFE70298C007F8B1D3
:10183000FFE7FFF7FDFD0699401A0799884203D894
:10184000FFE7079828B9FFE70A99A02081F83D0033
:10185000FFE70A9800684069C0F340008DF8130064
:101860000A9800684069C0F380208DF81200C7E72D
:101870000A99202081F83D000A980068406900F02C
:1018800002010120B0EB510F32D1FFE70A98016845
:10189000086840F400700860FFE7002003900A9891
:1018A0000068406903900A98006880690390039873
:1018B000FFE70A9806996A4611600221C0F21001FA
:1018C0000122192304F03CF820B1FFE701208DF834
:1018D0002F0046E00A99202081F83D00FFE70A9991
:1018E000002081F83C00FFE700208DF82F0038E051
:1018F0000A980168086840F4007008600A98016856
:101900006FF4806048610A9806996A461160022166
:10191000C0F210010122192304F012F820B1FFE7F0
:1019200001208DF82F001CE0FFE70598013005909D
:10193000FFE7059808998842FFF427AFFFE70A9967
:10194000202081F83D00FFE70A99002081F83C0043
:10195000FFE701208DF82F0003E002208DF82F0013
:10196000FFE79DF82F000CB080BD000080B590B05F
:10197000DDF848C00A90ADF826100892ADF81E3088
:1019800000200690FFF754FD05900A9890F83D005E
:10199000202840F04182FFE70A9805996A461160C5
:1019A0000221C0F210010122192303F0C9FF20B166
:1019B000FFE702208DF82F0032E2FFE70A9890F847
:1019C0003C00012804D1FFE702208DF82F0027E218
:1019D0000A99012081F83C00FFE7FFE70A980068B8
:1019E0000068C00738B9FFE70A980168086840F046
:1019F00001000860FFE70A980168086820F40060A9
:101A000008600A99222081F83D000A99102081F887
:101A10003E000A990020086408980A994862BDF8B7
:101A20001E000A9948850A98408D0A9908850A99E6
:101A30000020CFF6FF70C8620A98BDF82610129AEF
:101A4000059B03F0D5FC20B1FFE701208DF82F00A6
:101A5000E6E10A98008DA0B9FFE7FFE700200490B7
:101A60000A980068406904900A98006880690490A8
:101A70000498FFE70A980168086840F4007008605D
:101A80005DE00A98008D01281FD1FFE70A980168E0
:101A9000086820F480600860EFF3108072B60F9041
:101AA000FFE7002003900A980068406903900A98B5
:101AB0000068806903900398FFE70A980168086846
:101AC00040F40070086062B638E00A98008D022881
:101AD0001FD1FFE70A980168086840F400600860B9
:101AE000EFF3108072B60E90FFE7002002900A9884
:101AF0000068406902900A98006880690290029824
:101B0000FFE70A980168086820F48060086062B600
:101B100013E00A980168086840F480600860FFE7F5
:101B2000002001900A980068406901900A980068B6
:101B3000806901900198FFE7FFE7FFE7FFE7FFE714
:101B40000A98008D002800F05581FFE70A98008D63
:101B5000032800F20781FFE70A98008D01281ED1B3
:101B6000FFE70A981299059A04F018F820B1FFE7E8
:101B700001208DF82F0053E10A98006800690A9946
:101B8000496A08700A99486A013048620A99088DC2
:101B9000013808850A99488D01384885E1E00A989E
:101BA000008D022841D1FFE70A98129B05996A46E9
:101BB00011600421C0F20101002203F0C1FE20B136
:101BC000FFE701208DF82F002AE1EFF3108072B6B5
:101BD0000D900A980168086840F4007008600A983F
:101BE000006800690A99496A08700A99486A0130D0
:101BF00048620A99088D013808850A99488D01388C
:101C0000488562B60A98006800690A99496A0870AE
:101C10000A99486A013048620A99088D0138088596
:101C20000A99488D013848859AE00A98129B0599CF
:101C30006A4611600421C0F20101002203F080FE17
:101C400020B1FFE701208DF82F00E9E00A98016834
:101C5000086820F480600860EFF3108072B60C9082
:101C60000A98006800690A99496A08700A99486ADE
:101C7000013048620A99088D013808850A99488D13
:101C80000138488540F20400C2F20000006848F2C2
:101C90001F51C5F2EB11A0FB0110C00844F6D3514F
:101CA000C1F26201A0FB0110800923214843069084
:101CB000FFE70698013806900698D0B9FFE70A9921
:101CC000002008630A9A202182F83D100A9981F8C1
:101CD0003E000A99086C40F02000086462B6FFE7F5
:101CE0000A99002081F83C00FFE701208DF82F00C1
:101CF00096E0FFE70A980068406900F004010020C0
:101D0000B0EB910FD5D0FFE70A980168086840F45E
:101D1000007008600A98006800690A99496A0870AA
:101D20000A99486A013048620A99088D0138088585
:101D30000A99488D0138488562B60A98006800699A
:101D40000A99496A08700A99486A013048620A99F2
:101D5000088D013808850A99488D01384885FFE7C4
:101D6000FFE746E00A981299059A03F017FF20B1A1
:101D7000FFE701208DF82F0052E00A980068006903
:101D80000A99496A08700A99486A013048620A99B2
:101D9000088D013808850A99488D013848850A98C8
:101DA0000068406900F004010120B0EB910F1FD1E1
:101DB000FFE70A98008D032807D1FFE70A9801681A
:101DC000086820F480600860FFE70A9800680069EE
:101DD0000A99496A08700A99486A013048620A9962
:101DE000088D013808850A99488D01384885FFE734
:101DF000FFE7A5E60A99202081F83D000A99002016
:101E000081F83E00FFE70A99002081F83C00FFE7D7
:101E100000208DF82F0003E002208DF82F00FFE74F
:101E20009DF82F0010B080BD80B588B0DDF828C0C7
:101E30000690ADF816100492ADF80E30FFF7F8FAE0
:101E40000290069890F83D00202840F0E980FFE7D6
:101E5000069802996A4611600221C0F2100101221F
:101E6000192303F06DFD20B1FFE702208DF81F005C
:101E7000DAE0FFE7069890F83C00012804D1FFE77C
:101E800002208DF81F00CFE00699012081F83C0068
:101E9000FFE7FFE7069800680068C00738B9FFE76A
:101EA00006980168086840F001000860FFE706989E
:101EB0000168086820F4006008600699212081F814
:101EC0003D000699102081F83E0006990020086424
:101ED000049806994862BDF80E0006994885069850
:101EE000408D0699088506990020CFF6FF70C862DC
:101EF0000698BDF816100A9A029B03F04FFB20B11A
:101F0000FFE701208DF81F008EE0FFE70020019021
:101F10000698006840690190069800688069019001
:101F20000198FFE7FFE70698008D002860D0FFE7E3
:101F300006980A99029A03F09FFE80B1FFE706987F
:101F4000006C042807D1FFE706980168086840F490
:101F500000700860FFE701208DF81F0064E006981C
:101F60000168406A007808610699486A0130486251
:101F70000699488D013848850699088D01380885ED
:101F800006980068406900F004010120B0EB910F51
:101F900016D1FFE70698008D90B1FFE7069801681B
:101FA000406A007808610699486A013048620699DB
:101FB000488D013848850699088D01380885FFE766
:101FC00006980A99029A03F065FC80B1FFE706982B
:101FD000006C042807D1FFE706980168086840F400
:101FE00000700860FFE701208DF81F001CE09AE7F1
:101FF00006980168086840F400700860069920207F
:1020000081F83D000699002081F83E00FFE706991F
:10201000002081F83C00FFE700208DF81F0003E05E
:1020200002208DF81F00FFE79DF81F0008B080BD5B
:1020300010B590B0844614981398DDF848E0CDF8B8
:1020400028C0ADF82610ADF82420ADF82230ADF848
:10205000200000200790FFF7EBF906900A9890F80F
:102060003D00202840F03F82FFE70A9806996A4623
:1020700011600221C0F210010122192303F060FC5B
:1020800020B1FFE702208DF82F0030E2FFE70A9829
:1020900090F83C00012804D1FFE702208DF82F00C2
:1020A00025E20A99012081F83C00FFE7FFE70A9842
:1020B00000680068C00738B9FFE70A980168086837
:1020C00040F001000860FFE70A980168086820F402
:1020D000006008600A99222081F83D000A9940209A
:1020E00081F83E000A990020086412980A99486213
:1020F000BDF820000A9948850A98408D0A990885FC
:102100000A990020CFF6FF70C8620A98BDF8261021
:10211000BDF82420BDF82230DDF850C0069CEE4604
:10212000CEF80440CEF800C003F0C2FA20B1FFE7B9
:1021300001208DF82F00DAE10A98008DA0B9FFE7A1
:10214000FFE7002005900A980068406905900A980A
:102150000068806905900598FFE70A98016808689B
:1021600040F4007008605DE00A98008D01281FD1DE
:10217000FFE70A980168086820F480600860EFF3C0
:10218000108072B60F90FFE7002004900A98006854
:10219000406904900A980068806904900498FFE7F9
:1021A0000A980168086840F40070086062B638E078
:1021B0000A98008D02281FD1FFE70A980168086875
:1021C00040F400600860EFF3108072B60E90FFE7F5
:1021D000002003900A980068406903900A980068FC
:1021E000806903900398FFE70A980168086820F463
:1021F0008060086062B613E00A980168086840F4DD
:1022000080600860FFE7002002900A98006840693B
:1022100002900A980068806902900298FFE7FFE741
:10222000FFE7FFE7FFE70A98008D002800F04981EB
:10223000FFE70A98008D032800F20781FFE70A985C
:10224000008D01281ED1FFE70A981499069A03F021
:10225000A5FC20B1FFE701208DF82F0047E10A9887
:10226000006800690A99496A08700A99486A013049
:1022700048620A99088D013808850A99488D013805
:102280004885E1E00A98008D022841D1FFE70A98CD
:10229000149B06996A4611600421C0F201010022D4
:1022A00003F04EFB20B1FFE701208DF82F001EE167
:1022B000EFF3108072B60D900A980168086840F438
:1022C000007008600A98006800690A99496A0870F5
:1022D0000A99486A013048620A99088D01380885D0
:1022E0000A99488D0138488562B60A9800680069E5
:1022F0000A99496A08700A99486A013048620A993D
:10230000088D013808850A99488D013848859AE07A
:102310000A98149B06996A4611600421C0F20101D3
:10232000002203F00DFB20B1FFE701208DF82F0004
:10233000DDE00A980168086820F480600860EFF327
:10234000108072B60C900A98006800690A99496A70
:1023500008700A99486A013048620A99088D013864
:1023600008850A99488D0138488540F20400C2F278
:102370000000006848F21F51C5F2EB11A0FB0110EC
:10238000C00844F6D351C1F26201A0FB01108009DC
:10239000232148430790FFE70798013807900798E3
:1023A000D0B9FFE70A99002008630A9A202182F831
:1023B0003D100A9981F83E000A99086C40F020000F
:1023C000086462B6FFE70A99002081F83C00FFE745
:1023D00001208DF82F008AE0FFE70A980068406925
:1023E00000F004010020B0EB910FD5D0FFE70A9870
:1023F0000168086840F4007008600A980068006985
:102400000A99496A08700A99486A013048620A992B
:10241000088D013808850A99488D0138488562B6CB
:102420000A98006800690A99496A08700A99486A16
:10243000013048620A99088D013808850A99488D4B
:1024400001384885FFE7FFE73AE00A981499069AB1
:1024500003F0A4FB20B1FFE701208DF82F0046E038
:102460000A98006800690A99496A08700A99486AD6
:10247000013048620A99088D013808850A99488D0B
:10248000013848850A980068406900F0040101207D
:10249000B0EB910F13D1FFE70A98006800690A9921
:1024A000496A08700A99486A013048620A99088D99
:1024B000013808850A99488D01384885FFE7FFE70C
:1024C000B1E60A99202081F83D000A99002081F8A0
:1024D0003E00FFE70A99002081F83C00FFE700205A
:1024E0008DF82F0003E002208DF82F00FFE79DF804
:1024F0002F0010B010BD000080B58AB009900020F8
:1025000008900790069005900998006845F20041F0
:10251000C4F2000188422CD1FFE7FFE741F2180026
:10252000C4F20200016841F008010160006800F097
:10253000080004900498FFE7C02005901220069040
:102540000320089040F60040C4F2010005A9FEF700
:1025500097FDFFE741F21C00C4F20200016841F45C
:1025600000110160006800F4001003900398FFE779
:1025700036E00998006845F60001C4F2000188427F
:102580002DD1FFE7FFE741F21800C4F20200016815
:1025900041F008010160006800F008000290029814
:1025A000FFE74FF44060059012200690032008904A
:1025B00040F60040C4F2010005A9FEF761FDFFE707
:1025C00041F21C00C4F20200016841F48001016084
:1025D000006800F4800001900198FFE7FFE7FFE743
:1025E0000AB080BD40F2F800C2F20000027843F663
:1025F0004461C2F20001086810440860704700009E
:1026000080B542F20001C4F20201086840F01000F7
:102610000860032000F096F80F2000F005F800F0A5
:102620003BF8002080BD000080B582B0009040F2F1
:102630000400C2F20000006840F2F801C2F200019A
:102640000A784FF47A71B1FBF2F1B0FBF1F001F0CE
:10265000B9FB20B1FFE701208DF8070018E00098D2
:102660000F280DD8FFE700994FF0FF30002200F04F
:102670004FF8009840F2FC01C2F20001086003E04C
:1026800001208DF8070003E000208DF80700FFE728
:102690009DF8070002B080BD83B0FFE741F218004B
:1026A000C4F20200016841F001010160006800F01D
:1026B000010002900298FFE7FFE741F21C00C4F21C
:1026C0000200016841F080510160006800F0805014
:1026D00001900198FFE7FFE70421C4F201010868B7
:1026E0000090009820F0E0600090009840F00070AA
:1026F000009000980860FFE703B0704780B582B093
:102700008DF807009DF9070005F0ECFB02B080BDD5
:1027100080B586B08DF817000491039200200290D6
:1027200005F0F8FB02909DF91700019002980499BA
:10273000039A03F0CFFD0146019805F0F3FB06B0C4
:1027400080BD000080B582B00190019805F00CFCBE
:1027500002B080BD80B584B002900191029820B98A
:10276000FFE701208DF80F001BE1019842F2000104
:10277000C4F20201096801F00701884216D9FFE797
:1027800042F20000C4F20200016821F00701019A40
:1027900011430160006800F007000199884204D0ED
:1027A000FFE701208DF80F00FBE0FFE702980078BB
:1027B000800700282AD5FFE7029800784007002804
:1027C00009D5FFE741F20401C4F20201086840F4B0
:1027D000E0600860FFE7029800780007002809D54C
:1027E000FFE741F20401C4F20201086840F46050BE
:1027F0000860FFE741F20401C4F20201086820F01A
:10280000F000029A926810430860FFE7029800788F
:10281000C007002860D0FFE70298406801280ED169
:10282000FFE741F20000C4F20200006880030028C4
:1028300004D4FFE701208DF80F00B2E021E00298F8
:10284000406802280ED1FFE741F20000C4F2020006
:1028500000688001002804D4FFE701208DF80F00F4
:102860009FE00DE041F20000C4F202000068800722
:10287000002804D4FFE701208DF80F0091E0FFE766
:10288000FFE741F20401C4F20201086820F00300EE
:10289000029A526810430860FEF7CAFD0090FFE7F5
:1028A00041F20400C4F20200006800F00C0002993A
:1028B0004968B0EB810F0ED0FFE7FEF7B9FD009934
:1028C000401A41F28931884204D3FFE703208DF892
:1028D0000F0066E0E4E7FFE7019842F20001C4F26E
:1028E0000201096801F00701884216D2FFE742F2AF
:1028F0000000C4F20200016821F00701019A1143AF
:102900000160006800F007000199884204D0FFE7E9
:1029100001208DF80F0044E0FFE70298007840079F
:1029200000280CD5FFE741F20401C4F20201086857
:1029300020F4E060029AD26810430860FFE7029832
:102940000078000700280DD5FFE741F20401C4F22A
:102950000201086820F46050029A126940EAC2003D
:102960000860FFE700F04CF841F20401C4F20201F4
:102970000968C9B20A0940F63851C0F60101895CFC
:10298000C84040F20401C2F20001086040F2FC00BD
:10299000C2F200000068FFF747FE00208DF80F002C
:1029A000FFE79DF80F0004B080BD000040F2040076
:1029B000C2F200000068704780B5FFF7F7FF41F2F0
:1029C0000401C4F202010968C1F3022240F6485131
:1029D000C0F60101895CC84080BD000080B5FFF7EA
:1029E000E5FF41F20401C4F202010968C1F3C22209
:1029F00040F64851C0F60101895CC84080BD000026
:102A000086B000200590049003900290019041F25E
:102A10000400C4F2020000680590059800F00C0064
:102A20000146009100283FD0FFE70098042804D019
:102A3000FFE70098082806D037E041F20020C0F2F6
:102A40007A00019037E00598C0F3834140F6D050FA
:102A5000C0F60100405C02909DF81600C007C0B1AE
:102A6000FFE741F20400C4F202000068C0F34041F5
:102A700040F6E050C0F60100405C0490029841F23C
:102A80000021C0F27A0148430499B0FBF1F00390B1
:102A900007E0029840F60011C0F23D014843039060
:102AA000FFE70398019006E0FFE741F20020C0F243
:102AB0007A000190FFE7019806B0704780B586B0B4
:102AC0000490049820B9FFE701208DF817002EE349
:102AD00004980078C007002800F0AE80FFE741F2BC
:102AE0000400C4F20200006800F00C00042813D0B7
:102AF000FFE741F20400C4F20200006800F00C009D
:102B000008281BD1FFE741F20400C4F2020000686C
:102B1000C003002812D5FFE741F20000C4F2020012
:102B200000688003002808D5FFE70498406820B9B2
:102B3000FFE701208DF81700F9E27CE0FFE7049839
:102B40004068B0F5803F09D1FFE741F20001C4F2CF
:102B50000201086840F48030086032E00498406860
:102B600068B9FFE741F20001C4F20201086820F4ED
:102B700080300860086820F48020086020E0049815
:102B80004068B0F5A02F0DD1FFE741F20001C4F27B
:102B90000201086840F480200860086840F4803032
:102BA00008600CE041F20001C4F20201086820F460
:102BB00080300860086820F480200860FFE7FFE7A5
:102BC000FFE7FFE704984068D0B1FFE7FEF730FC6D
:102BD0000390FFE741F20000C4F2020000688003A6
:102BE00000280CD4FFE7FEF723FC0399401A652860
:102BF00004D3FFE703208DF8170098E2EAE719E015
:102C0000FEF716FC0390FFE741F20000C4F2020059
:102C10000068800300280CD5FFE7FEF709FC039944
:102C2000401A652804D3FFE703208DF817007EE2E1
:102C3000EAE7FFE7FFE7FFE704980078800700284E
:102C400040F18D80FFE741F20400C4F20200006809
:102C500010F00C0F13D0FFE741F20400C4F20200A1
:102C6000006800F00C00082829D1FFE741F20400B9
:102C7000C4F202000068C003002820D4FFE741F23C
:102C80000000C4F2020000688007002809D5FFE7B1
:102C900004980069012804D0FFE701208DF817008F
:102CA00045E241F20001C4F20201086820F0F80098
:102CB000049A526940EAC2000860FFE74EE00498B7
:102CC000006958B3FFE70021C4F2422101200860E7
:102CD000FEF7AEFB0390FFE741F20000C4F20200F2
:102CE0000068800700280CD4FFE7FEF7A1FB0399DA
:102CF000401A032804D3FFE703208DF8170016E2DB
:102D0000EAE741F20001C4F20201086820F0F8008D
:102D1000049A526940EAC20008601EE00021C4F231
:102D2000422100200860FEF783FB0390FFE741F299
:102D30000000C4F202000068800700280CD5FFE7FD
:102D4000FEF776FB0399401A032804D3FFE703201C
:102D50008DF81700EBE1EAE7FFE7FFE7FFE70498EC
:102D600000780007002848D5FFE70498806918B369
:102D7000FFE740F28041C4F2422101200860FEF7E3
:102D800057FB0390FFE741F22400C4F20200006801
:102D9000800700280CD4FFE7FEF74AFB0399401A8E
:102DA000032804D3FFE703208DF81700BFE1EAE70B
:102DB000012003F0C7FA1FE040F28041C4F2422133
:102DC00000200860FEF734FB0390FFE741F2240087
:102DD000C4F202000068800700280CD5FFE7FEF768
:102DE00027FB0399401A032804D3FFE703208DF83B
:102DF00017009CE1EAE7FFE7FFE704980078400747
:102E0000002840F1D880FFE700208DF8070041F24C
:102E10001C00C4F202000068C000002813D4FFE7C1
:102E2000FFE741F21C00C4F20200016841F080514A
:102E30000160006800F0805000900098FFE70120DA
:102E40008DF80700FFE747F20000C4F200000068B9
:102E5000C005002822D4FFE747F20001C4F20001B8
:102E6000086840F480700860FEF7E2FA0390FFE71C
:102E700047F20000C4F200000068C00500280CD42E
:102E8000FFE7FEF7D5FA0399401A652804D3FFE758
:102E900003208DF817004AE1EAE7FFE7FFE704980F
:102EA000C068012809D1FFE741F22001C4F2020104
:102EB000086840F00100086031E00498C06868B913
:102EC000FFE741F22001C4F20201086820F001008E
:102ED0000860086820F0040008601FE00498C068DB
:102EE00005280DD1FFE741F22001C4F20201086874
:102EF00040F004000860086840F0010008600CE041
:102F000041F22001C4F20201086820F001000860CB
:102F1000086820F004000860FFE7FFE7FFE7FFE72D
:102F20000498C068E0B1FFE7FEF782FA0390FFE77C
:102F300041F22000C4F202000068800700280ED48D
:102F4000FFE7FEF775FA0399401A41F2893188428A
:102F500004D3FFE703208DF81700E8E0E8E71BE063
:102F6000FEF766FA0390FFE741F22000C4F2020088
:102F70000068800700280ED5FFE7FEF759FA03998D
:102F8000401A41F28931884204D3FFE703208DF8CB
:102F90001700CCE0E8E7FFE79DF80700012809D11A
:102FA000FFE741F21C01C4F20201086820F08050E2
:102FB0000860FFE7FFE70498C069002800F0B380CD
:102FC000FFE741F20400C4F20200006800F00C00C8
:102FD000082800F08280FFE70498C06902285CD1CD
:102FE000FFE76021C4F2422100200860FEF720FACA
:102FF0000390FFE741F20000C4F202000068800184
:1030000000280CD5FFE7FEF713FA0399401A0328AE
:1030100004D3FFE703208DF8170088E0EAE704985F
:10302000006AB0F5803F0CD1FFE741F20401C4F221
:103030000201086820F40030049A92681043086086
:10304000FFE741F20401C4F20201086820F47410A1
:10305000049B1A6A5B6A1A43104308606021C4F239
:10306000422101200860FEF7E3F90390FFE741F2F7
:103070000000C4F202000068800100280CD4FFE7C1
:10308000FEF7D6F90399401A032804D3FFE703207B
:103090008DF817004BE0EAE71EE06021C4F2422100
:1030A00000200860FEF7C4F90390FFE741F200003A
:1030B000C4F202000068800100280CD5FFE7FEF78B
:1030C000B7F90399401A032804D3FFE703208DF8CA
:1030D00017002CE0EAE7FFE724E00498C069012824
:1030E00004D1FFE701208DF8170020E041F2040031
:1030F000C4F2020000680290029800F48030049943
:10310000096A884208D1FFE7029800F47010049918
:10311000496A884204D0FFE701208DF8170006E0D5
:10312000FFE7FFE7FFE700208DF81700FFE79DF8B6
:10313000170006B080BD000083B001900091019897
:10314000406E800F009908700198406EC0F3836054
:10315000009948700198406EC0F301600099887032
:103160000198B0F866000099C8700198406E000A96
:10317000009908710198406E009948710198806E1D
:10318000000D0099C8800198806EC0F3034000993B
:1031900008720198B0F86800C00B00994872019855
:1031A000806EC0F38030009988720198806EC0F301
:1031B00040300099C8720198806EC0F300300099C9
:1031C00008730099002048730198406C00284BD187
:1031D000FFE70199886EC96E6FF39F20800040EA77
:1031E0009170009908610198C06EC0F3C2600099A7
:1031F00008750198C06EC0F3026000994875019887
:10320000C06EC0F34250009988750198C06EC0F33B
:1032100082400099C8750198C06EC0F3C230009911
:103220000876009800690130019948650098007E91
:1032300000F00700811C012000FA01F3019A516D92
:10324000594351650099097A01F00F0188400199AD
:1032500088650199486D8A6D520A5043C865019985
:103260004FF40070086635E00198406C01281DD1CC
:10327000FFE70198816E01F03F01B0F86E0040EA6F
:10328000014000990861009801694FF4806000EBEB
:103290008120019948650199486DC86501994FF4ED
:1032A000007088650199886D086612E001980168D0
:1032B00040F2FF50C0F2400088630199886B40F0F3
:1032C000805088630199012081F834008DF80B004B
:1032D00073E0FFE70198C06EC0F380300099487634
:1032E0000198C06EC0F3C610009988760198C06E30
:1032F00000F07F000099C8760198006FC00F009918
:1033000008770198006FC0F34170009948770198E1
:10331000006FC0F38260009988770198006FC0F356
:1033200083500099C8770198006FC0F3405000990E
:1033300081F820000099002081F821000199096F8F
:10334000C1F30041009A82F822100199B1F870107F
:10335000C90B009A82F823100199096FC1F38031DB
:10336000009A82F824100199096FC1F34031009A44
:1033700082F825100199096FC1F30031009A82F893
:1033800026100199096FC1F38121009A82F8271054
:103390000199096FC1F30121009A82F8281001995F
:1033A00091F870104908009A82F82910009A0121BA
:1033B00082F82A108DF80B00FFE79DF80B0003B090
:1033C0007047000082B0019000910198406C009914
:1033D00008600198806C009948600198C06C009961
:1033E00088600198006D0099C8600198406D00994F
:1033F00008610198806D009948610198C06D00993D
:1034000088610198006E0099C861002002B0704781
:1034100080B584B00390002000900398694603F0C3
:1034200043FE0190019830B1FFE7019A0399886B40
:1034300010438863FFE70098C0F34320029002988E
:1034400004B080BD80B582B00090009820B9FFE73D
:1034500001208DF8070024E0009890F8340038B976
:10346000FFE7009900200877009800F0A1F8FFE737
:103470000099032081F83400009800F017F820B17B
:10348000FFE701208DF807000BE00099002088631A
:1034900000990863009A012182F834108DF8070022
:1034A000FFE79DF8070002B080BD0000B0B58EB008
:1034B0000C900020049005900690079008907620CC
:1034C00009900C9800680499059A069BDDF81CC0C9
:1034D000089C099DEE46CEF80850CEF80440CEF880
:1034E00000C002F08DFF8DF82B009DF82B0020B15D
:1034F000FFE701208DF8370056E0A021C4F230210B
:103500000391002008600C98006802F0A7FF03995F
:10351000012008600220FDF791FD0C9803F024FDC6
:103520000B900B9860B1FFE70C99012081F83400F3
:103530000B9B0C9A916B194391638DF8370033E024
:103540000C9803F04BFC0B900B9860B1FFE70C99C3
:10355000012081F834000B9B0C9A916B1943916305
:103560008DF8370020E00C9800684FF4007102F0ED
:10357000EFFF0B900B9898B1FFE70C98016840F2B1
:10358000FF50C0F2400088630B9A0C99886B10437F
:1035900088630C99012081F834008DF8370003E02E
:1035A00000208DF83700FFE79DF837000EB0B0BD62
:1035B00080B58CB00B9000200A900990089007907D
:1035C0000B98006848F20001C4F2010188424CD116
:1035D000FFE7FFE741F21400C4F20200016841F482
:1035E00080610160006800F4806006900698FFE743
:1035F000FFE741F21800C4F20200016841F0100137
:103600000160006800F0100005900598FFE7FFE7F3
:1036100041F21800C4F20200016841F0200101608B
:10362000006800F0200004900498FFE74FF48850F1
:103630000790022001900890032002900A9041F226
:103640000000C4F2010007A90391FDF719FD019ADA
:10365000029803990423079308920A9041F20040CC
:10366000C4F20100FDF70CFDFFE70CB080BD0000C7
:1036700080B594B0DDF858C01290119110920F935C
:10368000FDF7D6FE079010980390119802901198BC
:1036900048B9FFE71299886B40F000608863012009
:1036A0008DF84F00E3E1129890F83400012840F0C3
:1036B000D581FFE712990020886303980F99084489
:1036C0001299C96D884209D9FFE71299886B40F0B9
:1036D0000070886301208DF84F00C8E11299032023
:1036E00081F83400129801680020C8621298406C7A
:1036F000012804D0FFE7039840020390FFE74FF052
:10370000FF3009900F9840020A9090200B90022001
:103710000C9000200D9001200E901298006809A9CD
:1037200002F02EFE0F9802280AD3FFE7129902201A
:10373000086312980068039902F058FF089009E0A6
:1037400012990120086312980068039902F06CFF37
:103750000890FFE70898B0B1FFE71298016840F2BF
:10376000FF50C0F240008863089A1299886B10439A
:1037700088631299012081F83400129A00211163A4
:103780008DF84F0073E10A980490FFE712980068E3
:10379000406B40F22A31084266D1FFE71298006878
:1037A000406B000400283CD5FFE70498C8B3FFE74E
:1037B00000200690FFE70698072831D8FFE7129807
:1037C000006802F053FE059005980299087002986F
:1037D000013002900498013804900598000A02997B
:1037E0000870029801300290049801380490BDF8E6
:1037F000160002990870029801300290049801386E
:1038000004909DF817000299087002980130029008
:10381000049801380490FFE7069801300690CAE743
:10382000FFE7FDF705FE0799401A1699884203D273
:10383000FFE71698B8B9FFE71298016840F2FF5009
:10384000C0F2400088631299886B40F000408863A2
:103850001299012081F83400129900200863032096
:103860008DF84F0003E191E712980068406BC005A6
:10387000002829D5FFE70F98022825D3FFE71298E3
:10388000406C03281FD0FFE71298006802F076FF13
:1038900008900898B0B1FFE71298016840F2FF5015
:1038A000C0F240008863089A1299886B10438863BD
:1038B0001299012081F83400129A002111638DF8C9
:1038C0004F00D4E0FFE7FFE712980068406B000765
:1038D000002816D5FFE71298016840F2FF50C0F2A9
:1038E000400088631299886B40F008008863129941
:1038F000012081F83400129A002111638DF84F00E5
:10390000B5E012980068406B8007002816D5FFE7E5
:103910001298016840F2FF50C0F24000886312998B
:10392000886B40F0020088631299012081F834000E
:10393000129A002111638DF84F0098E012980068E8
:10394000406B8006002816D5FFE71298016840F208
:10395000FF50C0F2400088631299886B40F020004D
:1039600088631299012081F83400129A00211163B2
:103970008DF84F007BE0FFE7FFE7FFE7FFE71298D6
:103980000068416B002089020029019006D5FFE7FD
:103990000498002818BF01200190FFE70198C00794
:1039A00000284ED0FFE71298006802F05FFD0590F6
:1039B0000598029908700298013002900498013825
:1039C00004900598000A029908700298013002904C
:1039D000049801380490BDF8160002990870029806
:1039E000013002900498013804909DF81700029964
:1039F0000870029801300290049801380490FDF795
:103A000017FD0799401A1699884203D2FFE71698C6
:103A1000B0B9FFE71298016840F2FF50C0F24000D1
:103A200088631299886B40F00040886312990120E6
:103A300081F83400129A002111638DF84F0016E0CE
:103A40009DE71298016840F23A508863129901206C
:103A500081F8340000208DF84F0008E01299886B3F
:103A600040F00050886301208DF84F00FFE79DF87B
:103A70004F0014B080BD000080B592B0DDF850C09A
:103A800010900F910E920D93FDF7D2FC05900E98B9
:103A900001900F9800900F9848B9FFE71099886B34
:103AA00040F00060886301208DF8470086E110989F
:103AB00090F83400012840F07881FFE71099002049
:103AC000886301980D9908441099C96D884209D9F5
:103AD000FFE71099886B40F00070886301208DF833
:103AE00047006BE11099032081F8340010980168B9
:103AF0000020C8621098406C012804D0FFE70198AC
:103B000040020190FFE74FF0FF3007900D98400210
:103B100008909020099000200A900B9001200C90B2
:103B20001098006807A902F02BFC0D9802280AD310
:103B3000FFE710992020086310980068019902F0AF
:103B40003BFE069009E01099102008631098006869
:103B5000019902F04FFE0690FFE70698B0B1FFE72B
:103B60001098016840F2FF50C0F240008863069A46
:103B70001099886B104388631099012081F83400F4
:103B8000109A002111638DF8470017E10898029000
:103B9000FFE710980068406B40F21A3108426DD17F
:103BA000FFE710980068406B4004002843D5FFE70A
:103BB000029800283FD0FFE700200490FFE7049818
:103BC000072837D8FFE70098007803900098013065
:103BD000009002980138029000980178039840EA1A
:103BE0000120039000980130009002980138029063
:103BF00000980178039840EA014003900098013052
:103C0000009002980138029000980178039840EAE9
:103C100001600390009801300090029801380290F2
:103C20001098006803A902F04BFCFFE704980130EC
:103C30000490C4E7FFE7FDF7FBFB0599401A1499D0
:103C4000884203D2FFE71498B8B9FFE710980168DB
:103C500040F2FF50C0F240008863069A1099886BCA
:103C6000104388631099012081F8340010990020D6
:103C7000086303208DF84700A0E08AE710980068E9
:103C8000406BC005002829D5FFE70D98022825D3F1
:103C9000FFE71098406C03281FD0FFE710980068DA
:103CA00002F06CFD06900698B0B1FFE7109801682D
:103CB00040F2FF50C0F240008863069A1099886B6A
:103CC000104388631099012081F83400109A002174
:103CD00011638DF8470071E0FFE7FFE71098006877
:103CE000406B0007002816D5FFE71098016840F2E6
:103CF000FF50C0F2400088631099886B40F00800C4
:103D000088631099012081F83400109A0021116312
:103D10008DF8470052E010980068406B800700283B
:103D200016D5FFE71098016840F2FF50C0F240003E
:103D300088631099886B40F0020088631099012015
:103D400081F83400109A002111638DF8470035E0A6
:103D500010980068406BC006002816D5FFE7109841
:103D6000016840F2FF50C0F2400088631099886BF0
:103D700040F0100088631099012081F83400109AF7
:103D8000002111638DF8470018E0FFE7FFE7FFE728
:103D90001098016840F23A5088631099012081F828
:103DA000340000208DF8470008E01099886B40F03F
:103DB0000050886301208DF84700FFE79DF8470019
:103DC00012B080BD80B582B00190019803F08EFAE8
:103DD00002B080BD81B0009001B0704781B000900A
:103DE00001B0704785B003900291FFE7039890F807
:103DF0003C00012804D1FFE702208DF813006DE09C
:103E00000399012081F83C00FFE7FFE703990220B6
:103E100081F83D00039800684068019003980068AD
:103E200080680090019820F070000190029801686D
:103E30000198084301900198039909684860039824
:103E4000006842F60041C4F2010188422AD0FFE72F
:103E50000398006843F20041C4F20101884221D076
:103E6000FFE703980068B0F1804F1BD0FFE703988D
:103E7000006840F20041C4F20001884212D0FFE71E
:103E80000398006840F60001C4F20001884209D09E
:103E9000FFE70398006840F60041C4F20001884241
:103EA0000ED1FFE7009820F0800000900298416852
:103EB0000098084300900098039909688860FFE71C
:103EC0000399012081F83D00FFE70399002081F864
:103ED0003C00FFE700208DF81300FFE79DF813007A
:103EE00005B0704780B582B00090009820B9FFE718
:103EF00001208DF807003FE0009890F83D0040B9A0
:103F0000FFE70099002081F83C00009800F038F8A5
:103F1000FFE70099022081F83D00009951F8040B59
:103F200003F05CFA0099012081F84600FFE7009950
:103F3000012081F83E00009981F83F00009981F846
:103F40004000009981F84100FFE7FFE70099012058
:103F500081F84200009981F84300009981F84400FB
:103F6000009981F84500FFE70099012081F83D00A4
:103F700000208DF80700FFE79DF8070002B080BD24
:103F800080B588B007900798006840F20041C4F2FD
:103F90000001884210D1FFE7FFE741F21C00C4F2A4
:103FA0000200016841F002010160006800F00200B7
:103FB00006900698FFE75FE00798006840F600016A
:103FC000C4F20001884210D1FFE7FFE741F21C0074
:103FD000C4F20200016841F004010160006800F0D1
:103FE000040005900598FFE745E00798006841F256
:103FF0000001C4F20001884219D1FFE7FFE741F256
:104000001C00C4F20200016841F010010160006868
:1040100000F0100004900498FFE736200290002280
:104020001146FEF775FB0298FEF768FB22E0079841
:10403000006841F20041C4F20001884219D1FFE753
:10404000FFE741F21C00C4F20200016841F02001C8
:104050000160006800F0200003900398FFE737201C
:10406000019005210022FEF753FB0198FEF746FB65
:10407000FFE7FFE7FFE7FFE708B080BD83B00190EF
:10408000019890F83D00012804D0FFE701208DF849
:104090000B0059E00199022081F83D000198016868
:1040A000C86840F00100C8600198006842F600410D
:1040B000C4F2010188422AD0FFE70198006843F268
:1040C0000041C4F20101884221D0FFE70198006855
:1040D000B0F1804F1BD0FFE70198006840F200412B
:1040E000C4F20001884212D0FFE70198006840F650
:1040F0000001C4F20001884209D0FFE7019800687E
:1041000040F60041C4F20001884212D1FFE7019855
:104110000068806800F0070000900098062807D02B
:10412000FFE701980168086840F001000860FFE7B8
:1041300006E001980168086840F001000860FFE7A8
:1041400000208DF80B00FFE79DF80B0003B07047CF
:1041500080B586B00490039100208DF80B00FFE736
:10416000049890F83C00012804D1FFE702208DF864
:104170001700ABE00499012081F83C00FFE7FFE75E
:104180000499022081F83D0004980068806801903D
:10419000019820F077000190019820F47F40019071
:1041A00001980499096888600398006800900028C5
:1041B00072D0FFE7009810286ED0FFE70098202803
:1041C0006AD0FFE70098302866D0FFE700984028C3
:1041D00055D0FFE70098502837D0FFE700986028B7
:1041E00040D0FFE7009870280BD0FFE70098B0F5AB
:1041F000805F05D0FFE70098B0F5005F16D052E071
:1042000055E004980068039B5A689968DB6803F0DE
:10421000A1F90498006880680190019840F0770047
:104220000190019804990968886040E0049800684A
:10423000039B5A689968DB6803F08CF9049801685D
:10424000886840F48040886031E004980068039AF0
:104250005168D26803F072FB04980068502103F0A3
:1042600093F924E004980068039A5168D26803F037
:104270008DFB04980068602103F086F917E004982C
:104280000068039A5168D26803F058FB04980068EC
:10429000402103F079F90AE004980068039909685D
:1042A00003F072F903E001208DF80B00FFE7049999
:1042B000012081F83D00FFE70499002081F83C00CF
:1042C000FFE79DF80B008DF81700FFE79DF817003A
:1042D00006B080BD81B0009001B0704780B582B05B
:1042E000019001980068006900F002010020B0EB25
:1042F000510F28D0FFE701980068C06800F0020164
:104300000020B0EB510F1DD0FFE7019801686FF05E
:10431000020008610199012008770198006880690E
:10432000800720B1FFE70198FFF7D4FF06E001986E
:1043300000F096F9019800F08BFAFFE70199002050
:104340000877FFE7FFE701980068006900F00401C3
:104350000020B0EB910F29D0FFE701980068C068FA
:1043600000F004010020B0EB910F1ED0FFE7019890
:1043700001686FF004000861019902200877019834
:104380000068806910F4407F04D0FFE70198FFF7D0
:10439000A1FF06E0019800F063F9019800F058FAD7
:1043A000FFE7019900200877FFE7FFE70198006821
:1043B000006900F008010020B0EBD10F28D0FFE722
:1043C00001980068C06800F008010020B0EBD10F30
:1043D0001DD0FFE7019801686FF00800086101999E
:1043E0000420087701980068C069800720B1FFE7C2
:1043F0000198FFF76FFF06E0019800F031F901988E
:1044000000F026FAFFE7019900200877FFE7FFE7B1
:1044100001980068006900F010010020B0EB111F46
:1044200029D0FFE701980068C06800F01001002063
:10443000B0EB111F1ED0FFE7019801686FF010006C
:10444000086101990820087701980068C06910F494
:10445000407F04D0FFE70198FFF73CFF06E001989A
:1044600000F0FEF8019800F0F3F9FFE70199002051
:104470000877FFE7FFE7019800680069C00780B18F
:10448000FFE701980068C068C00748B1FFE70198DE
:1044900001686FF001000861019800F0B3FAFFE7CE
:1044A000FFE7019800680069C1B20020B0EBD11F9E
:1044B00013D0FFE701980068C068C1B20020B0EBDC
:1044C000D11F09D0FFE7019801686FF080000861F3
:1044D0000198FFF77FFCFFE7FFE70198006800699C
:1044E00000F040010020B0EB911F14D0FFE70198CD
:1044F0000068C06800F040010020B0EB911F09D0B7
:10450000FFE7019801686FF040000861019800F032
:1045100091FAFFE7FFE701980068006900F02001C9
:104520000020B0EB511F14D0FFE701980068C0686D
:1045300000F020010020B0EB511F09D0FFE70198E7
:1045400001686FF0200008610198FFF747FCFFE762
:10455000FFE702B080BD000080B58CB00B9000205A
:104560000A900990089007900B98006840F200416B
:10457000C4F20001884239D1FFE7FFE741F2180099
:10458000C4F20200016841F004010160006800F01B
:10459000040006900698FFE7FFE741F21800C4F216
:1045A0000200016841F008010160006800F00800A5
:1045B00005900598FFE7C020079002200190089021
:1045C0000A9040F60000C4F2010007A90291FCF72E
:1045D00057FD019802990322079208900A9040F62D
:1045E0000040C4F20100FCF74BFD37E00B98006877
:1045F00040F60001C4F2000188422ED1FFE7FFE738
:1046000041F21800C4F20200016841F0200101608B
:10461000006800F0200004900498FFE74FF4405039
:104620000790022008900A9041F20040C4F2010075
:1046300007A9FCF725FDFFE70421C4F20101086882
:104640000390039840F0E0600390039840F480509A
:10465000039003980860FFE7FFE7FFE70CB080BD19
:1046600081B0009001B0704780B586B0049003918E
:10467000029200208DF80700FFE7049890F83C00B4
:10468000012804D1FFE702208DF8170089E0049982
:10469000012081F83C00FFE7FFE7029800900C281A
:1046A00000F270800099DFE801F0076D6D6D206DFC
:1046B0006D6D3A6D6D6D530004980068039902F0BA
:1046C00079FF04980168886940F0080088610498BF
:1046D0000168886920F004008861039802690498E1
:1046E000016888691043886150E004980068039964
:1046F00002F0D8FF04980168886940F4006088617E
:1047000004980168886920F48060886103980269D0
:1047100004980168886940EA0220886136E00498BC
:104720000068039903F03AF804980168C86940F0FA
:104730000800C86104980168C86920F00400C861D5
:104740000398026904980168C8691043C8611DE0B4
:1047500004980068039903F09DF804980168C869FB
:1047600040F40060C86104980168C86920F4806062
:10477000C8610398026904980168C86940EA022088
:10478000C86103E001208DF80700FFE7FFE7049907
:10479000002081F83C00FFE79DF807008DF8170026
:1047A000FFE79DF8170006B080BD000080B582B01D
:1047B0000090009820B9FFE701208DF807003FE046
:1047C000009890F83D0040B9FFE70099002081F87B
:1047D0003C00009800F038F8FFE70099022081F8CB
:1047E0003D00009951F8040B02F0F8FD00990120FA
:1047F00081F84600FFE70099012081F83E0000990A
:1048000081F83F00009981F84000009981F841004B
:10481000FFE7FFE70099012081F84200009981F845
:104820004300009981F84400009981F84500FFE7B2
:104830000099012081F83D0000208DF80700FFE776
:104840009DF8070002B080BD81B0009001B07047B4
:1048500081B0009001B0704780B58CB00A9009918A
:10486000099828B9FFE70A9890F83E0007901CE0E5
:104870000998042805D1FFE70A9890F83F000690B0
:1048800010E00998082805D1FFE70A9890F8400041
:10489000059004E00A9890F841000590FFE705981C
:1048A0000690FFE706980790FFE70798012804D0D5
:1048B000FFE701208DF82F009FE0099828B9FFE756
:1048C0000A99022081F83E001EE00998042806D1CA
:1048D000FFE70A99022081F83F00049012E009984E
:1048E000082806D1FFE70A99022081F840000390CA
:1048F00005E00A99022081F841000390FFE7039840
:104900000490FFE70498FFE70A98006809990122DC
:10491000019202F003FE01980A99096842F60042EA
:10492000C4F20102914202900CD0FFE70A9800689D
:104930004CF60041CBF6FE710844B0FA80F0400915
:104940000290FFE70298C00738B1FFE70A980168B4
:10495000486C40F400404864FFE70A98006842F65B
:104960000041C4F2010188422AD0FFE70A9800689A
:1049700043F20041C4F20101884221D0FFE70A98C6
:104980000068B0F1804F1BD0FFE70A98006840F242
:104990000041C4F20001884212D0FFE70A98006883
:1049A00040F60001C4F20001884209D0FFE70A98EE
:1049B000006840F60041C4F20001884212D1FFE7CE
:1049C0000A980068806800F0070008900898062898
:1049D00007D0FFE70A980168086840F00100086006
:1049E000FFE706E00A980168086840F001000860E7
:1049F000FFE700208DF82F00FFE79DF82F000CB097
:104A000080BD000080B582B001900198009009F04F
:104A1000D9FF0146009888420AD1FFE741F2E441FC
:104A2000C2F2000108684FF6FF7210440860FFE709
:104A300002B080BD81B0009001B0704782B001909B
:104A4000ADF8021002B0704781B0009001B070471D
:104A500080B592B01190119800680068109011987C
:104A60000068C0680F901198006840690E9000209F
:104A70000D900C90109800F00F000D900D9888B9D3
:104A8000FFE79DF84000800600280AD5FFE79DF863
:104A90003C008006002804D5FFE7119803F00EF8CB
:104AA000E9E1FFE70D98002800F0C280FFE79DF8DC
:104AB0003800C00738B9FFE7BDF83C0010F4907F1C
:104AC00000F0B680FFE79DF84000C00758B1FFE74F
:104AD0009DF83D00C00730B1FFE71199486C40F0E8
:104AE00001004864FFE79DF84000400700280BD50F
:104AF000FFE79DF83800C00730B1FFE71199486C17
:104B000040F002004864FFE79DF84000800700285D
:104B10000BD5FFE79DF83800C00730B1FFE71199CA
:104B2000486C40F004004864FFE79DF8400000072F
:104B3000002811D5FFE79DF83C008006002805D429
:104B4000FFE79DF83800C00730B1FFE71199486CC6
:104B500040F008004864FFE71198406C002866D0D8
:104B6000FFE79DF84000800600280AD5FFE79DF882
:104B70003C008006002804D5FFE7119802F09EFF54
:104B8000FFE7119800684069C0F380100C901198FD
:104B9000406C0007002804D4FFE70C9800283ED0A2
:104BA000FFE7119802F02CFF119800684069400659
:104BB00000282FD5FFE7FFE7FFE71198006850E8CE
:104BC000050F20F040000B90FFE70B991198026849
:104BD00042E805100028F0D1FFE7FFE71198C06B0D
:104BE00098B1FFE71198C16B47F6E110C0F60000DD
:104BF00048631198C06BFBF7D9FC28B1FFE7119807
:104C0000C06B416B8847FFE703E01198FFF71CFF7B
:104C1000FFE703E01198FFF717FFFFE706E01198A1
:104C2000FFF712FF119900204864FFE7FFE722E138
:104C30001198006B012840F0FE80FFE79DF84000CE
:104C4000C006002840F1F780FFE79DF83C00C00651
:104C5000002840F1F080FFE7FFE700200A9011985C
:104C6000006800680A901198006840680A900A98E5
:104C7000FFE71198006840694006002840F18180F4
:104C8000FFE71198C06B00684068ADF82600BDF8DA
:104C90002600002874D0FFE7BDF826001199898D01
:104CA00088426DDAFFE7BDF826001199C885119892
:104CB000C06B8069202858D0FFE7FFE7FFE7119815
:104CC000006850E8030F20F480700890FFE708990F
:104CD0001198026842E803100028F0D1FFE7FFE7CF
:104CE000FFE7FFE71198006850E8050F20F001008A
:104CF0000790FFE707991198026842E8051000281D
:104D0000F0D1FFE7FFE7FFE7FFE71198006850E801
:104D1000050F20F040000690FFE706991198026801
:104D200042E805100028F0D1FFE7FFE711992020A5
:104D300081F84200119900200863FFE7FFE711980E
:104D4000006850E8030F20F010000590FFE7059978
:104D50001198026842E803100028F0D1FFE7FFE74E
:104D60001198C06BFBF7E4FBFFE711990220486341
:104D70001198818DC28D891A89B2FFF75FFEFFE716
:104D800079E01199888DC98D401AADF812001198FB
:104D9000C08D00284ED0FFE7BDF81200002849D092
:104DA000FFE7FFE7FFE71198006850E8030F20F4E2
:104DB00090700390FFE703991198026842E803108E
:104DC0000028F0D1FFE7FFE7FFE7FFE71198006851
:104DD00050E8050F20F001000290FFE702991198BA
:104DE000026842E805100028F0D1FFE7FFE71199BB
:104DF000202081F84200119900200863FFE7FFE7B7
:104E00001198006850E8030F20F010000190FFE7B0
:104E100001991198026842E803100028F0D1FFE7D9
:104E2000FFE71199022048631198BDF81210FFF7AF
:104E300005FEFFE71FE09DF84000000600280AD5A8
:104E4000FFE79DF83C000006002804D5FFE7119815
:104E500002F07AFF0FE09DF84000400600280AD5D6
:104E6000FFE79DF83C004006002804D5FFE71198B5
:104E700002F010FEFFE712B080BD000080B582B0E6
:104E80000090009820B9FFE701208DF8070040E06E
:104E90000098806908B1FFE700E0FFE7009890F80C
:104EA000410040B9FFE70099002081F840000098D8
:104EB00000F034F8FFE70099242081F841000098C1
:104EC0000168C86820F40050C860009802F0ACFE89
:104ED00000980168086920F4904008610098016812
:104EE000486920F02A00486100980168C86840F4C9
:104EF0000050C860009900204864009A202182F880
:104F00004110009A82F84210009948638DF807001A
:104F1000FFE79DF8070002B080BD000080B59AB0A1
:104F20001990002018901790169015901998006805
:104F300043F60001C4F20101884267D1FFE7FFE7B1
:104F400041F21800C4F20200016841F4804101609E
:104F5000006800F4804014901498FFE7FFE741F2E6
:104F60001800C4F20200016841F004010160006809
:104F700000F0040013901398FFE74FF400701590B1
:104F8000022016900320189040F60000C4F20100A1
:104F90000A9015A90B91FCF773F80A980B994FF436
:104FA0008062159200220C9216921792FCF768F814
:104FB0000C9942F2F860C2F200000D904422C4F253
:104FC000020202601022426081608022C2600161A0
:104FD00041618161C161FBF7B7FF18B1FFE7FBF7E2
:104FE00055FAFFE7FFE7199842F2F861C2F20001B3
:104FF000816319984862FFE7252009900022114635
:10500000FDF786FB0998FDF779FBCFE0199800685A
:1050100044F20041C4F20001884265D1FFE7FFE796
:1050200041F21C00C4F20200016841F40031016049
:10503000006800F4003012901298FFE7FFE741F299
:105040001800C4F20200016841F004010160006828
:1050500000F0040011901198FFE704201590022041
:1050600016900320189040F60000C4F2010005904D
:1050700015A90691FCF704F80598069908221592DF
:105080000022079216921792FBF7FAFF079942F255
:105090003C70C2F2000008906C22C4F2020202606E
:1050A000416081608022C260016141612022826191
:1050B000C161FBF749FF18B1FFE7FBF7E7F9FFE72D
:1050C000FFE7199842F23C71C2F20001C1631998DE
:1050D0004862FFE72620049000221146FDF718FBE6
:1050E0000498FDF70BFB60E01998006844F6000196
:1050F000C4F20001884257D1FFE7FFE741F21C00EC
:10510000C4F20200016841F480210160006800F4EB
:10511000802010901098FFE7FFE741F21800C4F2DA
:105120000200016841F020010160006800F02000E9
:105130000F900F98FFE74FF48070159002201690A3
:105140000320189041F20040C4F20100029015A91A
:105150000391FBF795FF029803994FF400721592A3
:10516000002216921792FBF78BFFFFE70421C4F28F
:10517000010108680E900E9820F030000E900E98F5
:1051800040F0E0600E900E9840F030000E900E98C7
:105190000860FFE72720019000221146FDF7B8FACA
:1051A0000198FDF7ABFAFFE7FFE7FFE71AB080BD14
:1051B00080B584B002900191ADF80220029890F879
:1051C0004200202817D1FFE7019820B1FFE7BDF882
:1051D000020020B9FFE701208DF80F000FE00299CF
:1051E0000020086302980199BDF8022002F07AFDC0
:1051F0008DF80F0003E002208DF80F00FFE79DF807
:105200000F0004B080BD000080B584B00390039807
:10521000029006F0BFFF01460298884203D1FFE7E3
:1052200006F06CFF0CE00398019006F0D3FC0146F9
:105230000198884203D1FFE706F046FCFFE7FFE74D
:1052400004B080BD80B58AB008900791ADF81A20EF
:10525000059300200290089890F84100202878D10A
:10526000FFE7079820B1FFE7BDF81A0020B9FFE774
:1052700001208DF8270070E0089900204864089903
:10528000212081F84100FCF7D3F80290BDF81A0004
:1052900008998884BDF81A000899C884089880681D
:1052A000B0F5805F09D1FFE70898006928B9FFE7EA
:1052B000002004900798039004E0079804900020D1
:1052C0000390FFE7FFE70898C08C58B3FFE7089802
:1052D000029B05996A4611608021002202F07EFD42
:1052E00020B1FFE703208DF8270036E0049858B975
:1052F000FFE7039800886FF35F200899096848600A
:1053000003980230039008E004980078089909682F
:105310004860049801300490FFE70899C88C013870
:10532000C884D0E70898029B05996A46116040211D
:10533000002202F053FD20B1FFE703208DF8270083
:105340000BE00899202081F8410000208DF827000B
:1053500003E002208DF82700FFE79DF827000AB040
:1053600080BD000080B582B001900198009007F0E8
:1053700095FD01460098884203D1FFE707F05CFDE8
:10538000FFE702B080BD0000FFE7FEE782B00090BB
:1053900000980068406900F480610120B0EB912F13
:1053A0001ED1FFE7009801686FF4806048610099A2
:1053B00000200863009A202182F83D10009981F8AE
:1053C0003E000099086C40F004000864FFE7009973
:1053D000002081F83C00FFE701208DF8070003E082
:1053E00000208DF80700FFE79DF8070002B0704726
:1053F00080B588B00690ADF8161004920393069815
:10540000C06A029006980168086840F480600860ED
:105410000298082809D0FFE70298012805D0FFE785
:10542000029810F5803F07D1FFE7069801680868E9
:1054300040F4807008600DE00698006B112807D1D9
:10544000FFE706980168086840F48070086000E093
:10545000FFE7FFE70698049B03996A4611604FF047
:105460000111002200F06CFA80B1FFE70698006895
:105470000068C005002805D5FFE706994FF40070C5
:105480000864FFE703208DF81F0082E0069800699A
:10549000B0F5804F08D1FFE79DF8160040F00100FD
:1054A00006990968086162E0BDF8160000F44070D2
:1054B000C009F0300699096808610698049A039BB0
:1054C0000821C0F2010100F0BFFA20B1FFE701207E
:1054D0008DF81F005DE09DF81600069909680861C7
:1054E0000698049A039B0221C0F2010100F0ACFA75
:1054F00020B1FFE701208DF81F004AE0FFE7002000
:1055000001900698006840690190069800688069DB
:1055100001900198FFE706980168086840F48070E0
:1055200008600698049B03996A4611604FF00111C8
:10553000002200F005FA80B1FFE7069800680068D5
:10554000C005002805D5FFE706994FF400700864F0
:10555000FFE703208DF81F001BE0BDF8160000F4E4
:105560004070C009F130069909680861FFE70698A4
:10557000049A039B0221C0F2010100F065FA20B1F8
:10558000FFE701208DF81F0003E000208DF81F00C9
:10559000FFE79DF81F0008B080BD000080B588B00F
:1055A0000690ADF81610049203930698C06A029014
:1055B0000298082809D0FFE70298012805D0FFE7E4
:1055C000029810F5803F07D1FFE706980168086848
:1055D00040F4807008600DE00698006B122807D137
:1055E000FFE706980168086840F48070086000E0F2
:1055F000FFE7FFE70698049B03996A4611604FF0A6
:105600000111002200F09CF980B1FFE706980068C4
:105610000068C005002805D5FFE706994FF4007023
:105620000864FFE703208DF81F003CE0069800693E
:10563000B0F5804F08D1FFE7BDF8160000F0FE007E
:105640000699096808611CE0BDF8160000F4407076
:10565000C009F0300699096808610698049A039B0E
:105660000821C0F2010100F0EFF920B1FFE70120AD
:105670008DF81F0017E09DF816000699096808616B
:10568000FFE70698049A039B0221C0F2010100F093
:10569000DBF920B1FFE701208DF81F0003E00020B7
:1056A0008DF81F00FFE79DF81F0008B080BD0000C7
:1056B00080B586B0DDF824C0DDF820C00490ADF8D8
:1056C0000E10ADF80C20ADF80A3004980168086897
:1056D00040F48060086004980168086840F48070B5
:1056E00008600498089B09996A4611604FF00111FF
:1056F000002200F025F980B1FFE7049800680068F7
:10570000C005002805D5FFE704994FF40070086430
:10571000FFE703208DF81700B7E0BDF80E0000F09A
:10572000FE000499096808610498089A099B0221FF
:10573000C0F2010100F088F920B1FFE701208DF8E7
:105740001700A2E0FFE7002001900498006840697C
:10575000019004980068806901900198FFE704981F
:105760000899099A00F088FA80B1FFE70498006C64
:10577000042807D1FFE704980168086840F4007026
:105780000860FFE701208DF817007EE0BDF80A00F1
:10579000012806D1FFE79DF80C000499096808610B
:1057A00021E09DF80D0004990968086104980899A2
:1057B000099A00F061FA80B1FFE70498006C0428B0
:1057C00007D1FFE704980168086840F4007008609A
:1057D000FFE701208DF8170057E09DF80C000499B1
:1057E00009680861FFE704980899099A00F044FAEB
:1057F00080B1FFE70498006C042807D1FFE7049804
:105800000168086840F400700860FFE701208DF827
:1058100017003AE004980168086840F48070086056
:105820000498089B09996A4611604FF00111002203
:1058300000F086F880B1FFE7049800680068C005B2
:10584000002805D5FFE704994FF400700864FFE7CE
:1058500003208DF8170018E09DF80E0040F00100BD
:105860000499096808610498089A099B0221C0F20A
:10587000010100F0E9F820B1FFE701208DF81700E1
:1058800003E000208DF81700FFE79DF8170006B031
:1058900080BD000080B584B0029001910092FFE7C6
:1058A00002980068406900F004010020B0EB910FFD
:1058B0003ED1FFE70298FFF769FD20B1FFE7012025
:1058C0008DF80F0038E00198013080B3FFE7FBF757
:1058D000AFFD0099401A0199884203D8FFE701986B
:1058E00020BBFFE702980068406900F00401002037
:1058F000B0EB910F19D1FFE7029900200863029ADB
:10590000202182F83D10029981F83E000299086C2E
:1059100040F020000864FFE70299002081F83C0075
:10592000FFE701208DF80F0006E0FFE7FFE7B7E78C
:1059300000208DF80F00FFE79DF80F0004B080BD38
:1059400080B588B0DDF828C0069005918DF8132049
:105950000393FFE79DF8160001280CD1FFE7069896
:1059600000684069BDF814100840401AB0FA80F091
:10597000400902900BE0069800688069BDF8141099
:105980000840401AB0FA80F040090290FFE7029800
:105990009DF8131088424FD1FFE70398013000288B
:1059A00049D0FFE7FBF744FD0A99401A0399884262
:1059B00003D8FFE70398E8BBFFE79DF8160001282E
:1059C0000CD1FFE7069800684069BDF81410084044
:1059D000401AB0FA80F0400901900BE00698006888
:1059E0008069BDF814100840401AB0FA80F04009F0
:1059F0000190FFE701989DF81310884219D1FFE745
:105A0000069900200863069A202182F83D10069925
:105A100081F83E000699086C40F020000864FFE71A
:105A20000699002081F83C00FFE701208DF81F0057
:105A300006E0FFE7FFE78DE700208DF81F00FFE796
:105A40009DF81F0008B080BD80B588B00690059114
:105A500004920393FFE79DF8160001280CD1FFE79D
:105A6000069800684069BDF814100840401AB0FA62
:105A700080F0400902900BE0069800688069BDF84C
:105A800014100840401AB0FA80F040090290FFE775
:105A9000029800287AD1FFE706980068406900F470
:105AA00080610120B0EB912F24D1FFE706980168B7
:105AB000086840F400700860069801686FF4806020
:105AC0004861069900200863069A202182F83D105B
:105AD000069981F83E000699086C40F004000864BD
