:020000040800F2
:10000000A0680020F9010008F1420008893D0008BD
:10001000ED4200080D040008FD5F0008000000002C
:10002000000000000000000000000000355500083E
:100030001104000800000000614300088D5500080D
:10004000130200081302000813020008130200083C
:10005000130200081302000813020008130200082C
:10006000130200081302000813020008130200081C
:10007000130200081302000813020008130200080C
:1000800013020008130200081302000813020008FC
:1000900013020008130200081302000813020008EC
:1000A00013020008130200081302000813020008DC
:1000B00013020008130200081302000813020008CC
:1000C00013020008130200081302000813020008BC
:1000D0001302000813020008ED5F00081302000875
:1000E000130200081302000813020008130200089C
:1000F000130200081302000813020008130200088C
:10010000130200082144000813020008130200082B
:1001100013020008130200080556000815560008CF
:10012000130200081302000813020008130200085B
:1001300000F002F800F050F814A696E8000CB24463
:10014000B344DA4501D100F047F8BAE80F000FA632
:1001500096E83000A5EB040504EB0607AAEB0704BC
:10016000A7F101074FEA15154FEA3414A4F1010471
:10017000AC4201D300F030F813F0010F18BFFB1AA6
:1001800043F0010300F001F8DBE718470C89000099
:100190002C890000103A24BF78C878C1FAD85207D9
:1001A00024BF30C830C144BF04680C6070470000F1
:1001B000704700000023002400250026103A28BFC5
:1001C00078C1FBD8520728BF30C148BF0B607047C9
:1001D0001FB51FBD10B510BD00F05CF81146FFF74C
:1001E000F7FF07F0FDFE00F07AF803B4FFF7F2FF27
:1001F00003BC00F07DF8000009488047094800472B
:10020000FEE7FEE7FEE7FEE7FEE7FEE7FEE7FEE7C6
:10021000FEE7FEE704480549054A064B7047000023
:100220000156000831010008A0080020A068002045
:10023000A0280020A02800204FF0000200B513469F
:1002400094469646203922BFA0E80C50A0E80C50F6
:10025000B1F12001BFF4F7AF090728BFA0E80C50A7
:1002600048BF0CC05DF804EB890028BF40F8042BA0
:1002700008BF704748BF20F8022B11F0804F18BF0D
:1002800000F8012B7047704770477047004870476F
:10029000180000207546FFF7F9FFAE4605006946D5
:1002A000534620F00700854618B020B5FFF7B2FF8F
:1002B000BDE820404FF000064FF000074FF0000867
:1002C0004FF0000BAC46ACE8C009ACE8C009ACE8A4
:1002D000C009ACE8C00921F007018D46704710B590
:1002E0000446AFF300802046BDE81040FFF77DBF15
:1002F00001491820ABBEFEE726000200704700004F
:100300007047000080B582B00190019940F2C05062
:10031000C2F2000001F05EFD02B080BD80B540F287
:10032000C050C2F2000001F07BFD043818BF01206C
:1003300080BD000080B582B000208DF8060000F07E
:1003400019F8012804D0FFE701208DF807000CE020
:1003500040F2C050C2F2000001F00EFF8DF806001E
:100360009DF806008DF80700FFE79DF8070002B032
:1003700080BD000081B001208DF803009DF80300CE
:1003800001B0704780B586B0059004910392029346
:1003900000208DF807000599049A039B0298EC460B
:1003A000CCF8000040F2C050C2F2000002F002F8A7
:1003B00020B1FFE701208DF80700FFE79DF8070057
:1003C00006B080BD7047000080B586B005900491EE
:1003D0000392029300208DF807000599049A039B6D
:1003E0000298EC46CCF8000040F2C050C2F2000087
:1003F00002F0F4F920B1FFE701208DF80700FFE7D4
:100400009DF8070006B080BD70470000FFE7FEE7DB
:100410007047000081B0EFF3108072B60090FFE7E4
:10042000FEE7000080B582B001900091019800992C
:10043000002200F003F802B080BD000084B00390F9
:1004400002918DF8072001208DF8060000208DF81C
:10045000050040F2DC20C2F20000407A012827DCCF
:10046000FFE740F2DC23C2F200030093597A002038
:10047000585403995A7A03EB820251609DF8071091
:100480005A7A1A441172597A4A1C5A728DF8051018
:100490009DF805103031029A1170029A3A2151707C
:1004A000029A2F2191700299C8708DF80600FFE71B
:1004B0009DF8060004B0704783B0019000208DF8CD
:1004C0000300019890F8210002280DD0FFE7019960
:1004D00004208863FFE70199002081F82000FFE7EE
:1004E00001208DF80B0021E001980168086820F0D8
:1004F0000E00086001980168086820F0010008609B
:100500000198C16B026C012090404860FFE701999F
:10051000012081F82100FFE70199002081F82000E7
:10052000FFE79DF803008DF80B00FFE79DF80B0037
:1005300003B0704780B596B0159000208DF8530039
:10054000159890F82100022807D0FFE7159904209C
:10055000886301208DF8530074E1159801680868DC
:1005600020F00E00086015980168086820F001006E
:100570000860159800688121C4F202018842C0F029
:10058000A880FFE7159800680821C4F2020188429C
:1005900003D1FFE70120139094E0159800681C2117
:1005A000C4F20201884203D1FFE71020129086E0D6
:1005B000159800683021C4F20201884204D1FFE797
:1005C0004FF48070119077E0159800684421C4F2D0
:1005D0000201884204D1FFE74FF48050109068E098
:1005E000159800685821C4F20201884204D1FFE73F
:1005F0004FF480300F9059E0159800686C21C4F2D8
:100600000201884204D1FFE74FF480100E904AE0C7
:10061000159800688021C4F20201884204D1FFE7E6
:100620004FF080700D903BE01598006840F2084153
:10063000C4F20201884203D1FFE701200C902CE0B4
:100640001598006840F21C41C4F20201884203D1AF
:10065000FFE710200B901DE01598006840F2304134
:10066000C4F20201884204D1FFE74FF480700A907F
:100670000DE01598016840F24442C4F202024FF4C2
:100680008030914208BF4FF480500A90FFE70A98EB
:100690000B90FFE70B980C90FFE70C980D90FFE78D
:1006A0000D980E90FFE70E980F90FFE70F981090AF
:1006B000FFE710981190FFE711981290FFE712984A
:1006C0001390FFE7139840F20441C4F2020108605E
:1006D000A5E0159800680821C4F20201884203D100
:1006E000FFE70120099094E0159800681C21C4F2EE
:1006F0000201884203D1FFE71020089086E0159898
:1007000000683021C4F20201884204D1FFE74FF4AF
:100710008070079077E0159800684421C4F20201C8
:10072000884204D1FFE74FF48050069068E01598A6
:1007300000685821C4F20201884204D1FFE74FF457
:100740008030059059E0159800686C21C4F20201D0
:10075000884204D1FFE74FF4801004904AE01598D6
:1007600000688021C4F20201884204D1FFE74FF003
:10077000807003903BE01598006840F20841C4F295
:100780000201884203D1FFE7012002902CE0159876
:10079000006840F21C41C4F20201884203D1FFE725
:1007A000102001901DE01598006840F23041C4F21D
:1007B0000201884204D1FFE74FF4807000900DE001
:1007C0001598016840F24442C4F202024FF48030AE
:1007D000914208BF4FF480500090FFE700980190CD
:1007E000FFE701980290FFE702980390FFE7039864
:1007F0000490FFE704980590FFE705980690FFE74F
:1008000006980790FFE707980890FFE70898099077
:10081000FFE709980421C4F202010860FFE7159977
:10082000012081F82100FFE71599002081F82000C0
:10083000FFE71598406B20B1FFE71598416B88479B
:10084000FFE7FFE79DF8530016B080BD80B584B088
:10085000039000F0F5F9029003980190019801309F
:1008600048B1FFE740F21000C2F2000001780198A1
:1008700008440190FFE7FFE700F0E2F90299401A0F
:100880000199884201D2FFE7F6E704B080BD00007D
:1008900092B01190109100200F900B90FFE71098EC
:1008A00000680F99C840002800F09B81FFE70F996E
:1008B000012088400E90109800680E9908400D9015
:1008C0000D980E99884240F08881FFE710984068A3
:1008D0000790002851D0FFE7079801283AD0FFE79A
:1008E000079802283FD0FFE7079803285FD0FFE76B
:1008F0000798112832D0FFE70798122838D0FFE771
:1009000007980021C1F21101884236D0FFE707980D
:100910000021C1F2120188422FD0FFE70798002181
:10092000C1F22101884228D0FFE707980021C1F2D7
:100930002201884221D0FFE707980021C1F231014E
:1009400088421AD0FFE707980021C1F2320188429D
:1009500013D02FE01098C0680B902CE01098C0685E
:1009600004300B9027E01098C06808300B9022E00C
:100970001098C0680C300B901DE01098806818B972
:10098000FFE704200B9011E010988068012806D141
:10099000FFE708200B900E981199086105E00820E8
:1009A0000B900E9811994861FFE7FFE703E00020E4
:1009B0000B9000E0FFE70D98FF2803D8FFE71198A0
:1009C000069003E0119804300690FFE706980A901D
:1009D0000D98FF2804D8FFE70F988000059006E0E7
:1009E0000F996FF01F0000EB81000590FFE705985D
:1009F00009900A980068099A0F21914088430B9941
:100A0000914008430A9908601098C079C0060028F0
:100A100040F1E280FFE7FFE741F21800C4F2020074
:100A2000016841F001010160006800F001000890D8
:100A30000898FFE70F9820F003000821C4F2010195
:100A400040580C900F9800F0030081000F2000FA2E
:100A500001F10C9888430C90119840F60001C4F203
:100A60000101884203D1FFE70020049042E0119881
:100A700040F60041C4F20101884203D1FFE70120A2
:100A8000039034E0119841F20001C4F20101884260
:100A900003D1FFE70220029026E0119841F20041C5
:100AA000C4F20101884203D1FFE70320019018E05E
:100AB000119841F60001C4F20101884203D1FFE719
:100AC000042000900AE0119941F60042C4F20102AC
:100AD0000620914208BF05200090FFE70098019092
:100AE000FFE701980290FFE702980390FFE7039861
:100AF0000490FFE704980F9901F00301890000FAC0
:100B000001F10C9808430C900C980F9921F0030107
:100B10000822C4F20102885010988079C00600288B
:100B200009D5FFE70D9A40F20841C4F201010868B7
:100B30001043086008E00D9A40F20841C4F2010138
:100B4000086890430860FFE71098807980060028C5
:100B500009D5FFE70D9A40F20C41C4F20101086883
:100B60001043086008E00D9A40F20C41C4F2010104
:100B7000086890430860FFE7109880798007002894
:100B800009D5FFE70D9A40F20441C4F2010108685B
:100B90001043086008E00D9A40F20441C4F20101DC
:100BA000086890430860FFE710988079C00748B153
:100BB000FFE70D9A40F20041C4F2010108681043BA
:100BC000086008E00D9A40F20041C4F20101086893
:100BD00090430860FFE7FFE7FFE70F9801300F90B1
:100BE0005DE612B07047000083B00290ADF80610C9
:100BF0000298C0680090009ABDF8060002EA000161
:100C0000904340EA01400299086103B07047000038
:100C100082B00190ADF802108DF801209DF801001E
:100C200028B1FFE7BDF802000199086105E0BDF8B1
:100C30000200000401990861FFE702B0704700005C
:100C400040F69800C2F200000068704780B58EB090
:100C50000C900C9820B9FFE701208DF8370043E194
:100C60000C9890F83D0040B9FFE70C99002081F8FE
:100C70003C000C9800F03CF9FFE70C99242081F827
:100C80003D000C980168086820F0010008600C988D
:100C90000168086840F4004008600C980168086822
:100CA00020F40040086000F083FB0A900C98406834
:100CB00048F2A061C0F2010188420BD8FFE70A990F
:100CC00048F28042C0F21E020020914238BF01204B
:100CD00009900AE00A9940F60012C0F23D02002095
:100CE000914238BF01200990FFE70998012804D1FB
:100CF000FFE701208DF83700F6E00A984DF6836192
:100D0000C4F21B31A0FB0110800C0B900C98006802
:100D1000406820F03F000B9908430C99096848602F
:100D20000C980068006A20F03F0008900C9840681A
:100D300048F2A061C0F20101884204D8FFE70B9895
:100D4000013007900EE00B984FF49671484344F63B
:100D5000D351C1F26201A0FB0101012000EB91100F
:100D60000790FFE70898079908430C9909680862FB
:100D70000C980068C0694CF6FF71884306900C9887
:100D8000406848F2A061C0F2010188421FD8FFE725
:100D90000A9801380C9949684900B0FBF1F001301C
:100DA0006FF31F30032803D8FFE7042005900BE002
:100DB0000A9801380C9949684900B0FBF1F00130FC
:100DC0006FF31F300590FFE7059804904CE00C98F6
:100DD000806868B9FFE70A9801380C99496801EB07
:100DE0004101B0FBF1F001306FF31F3003900DE0D3
:100DF0000A9801380C99496819225143B0FBF1F067
:100E00000130042161F31F300390FFE703980005D0
:100E100018B9FFE70120029023E00C98806868B9B8
:100E2000FFE70A9801380C99496801EB4101B0FBD2
:100E3000F1F001306FF31F3001900DE00A98013896
:100E40000C99496819225143B0FBF1F0013004219B
:100E500061F31F300190FFE7019840F400400290D9
:100E6000FFE702980490FFE70698049908430C995D
:100E70000968C8610C980068006820F0C0000C9BED
:100E80001968DA691B6A1A43104308600C980068F5
:100E9000806848F2FF3188430C9A1168D368126960
:100EA0001A43104388600C980068C06820F0FF0067
:100EB0000C9B19685A699B691A431043C8600C98C7
:100EC0000168086840F0010008600C99002008647F
:100ED0000C9A202182F83D100C9908630C9981F836
:100EE0003E008DF83700FFE79DF837000EB080BD5B
:100EF00080B58AB009900020089007900690059070
:100F00000998006845F20041C4F2000188422CD1E2
:100F1000FFE7FFE741F21800C4F20200016841F068
:100F200008010160006800F0080004900498FFE7E1
:100F3000C0200590122006900320089040F6004043
:100F4000C4F2010005A9FFF7A3FCFFE741F21C0072
:100F5000C4F20200016841F400110160006800F46D
:100F6000001003900398FFE736E00998006845F603
:100F70000001C4F2000188422DD1FFE7FFE741F2F2
:100F80001800C4F20200016841F008010160006825
:100F900000F0080002900298FFE74FF440600590CF
:100FA000122006900320089040F60040C4F2010091
:100FB00005A9FFF76DFCFFE741F21C00C4F2020037
:100FC000016841F480010160006800F48000019034
:100FD0000198FFE7FFE7FFE70AB080BD40F210008D
:100FE000C2F20000027840F69801C2F200010868DF
:100FF000104408607047000080B542F20001C4F25E
:101000000201086840F010000860032000F096F824
:101010000F2000F005F800F03BF8002080BD000034
:1010200080B582B0009040F20400C2F20000006877
:1010300040F21001C2F200010A784FF47A71B1FB5C
:10104000F2F1B0FBF1F001F06FFD20B1FFE70120FC
:101050008DF8070018E000980F280DD8FFE70099D9
:101060004FF0FF30002200F04FF8009840F21401DA
:10107000C2F20001086003E001208DF8070003E0E0
:1010800000208DF80700FFE79DF8070002B080BD43
:1010900083B0FFE741F21800C4F20200016841F09A
:1010A00001010160006800F0010002900298FFE772
:1010B000FFE741F21C00C4F20200016841F08051D8
:1010C0000160006800F0805001900198FFE7FFE7A1
:1010D0000421C4F2010108680090009820F0E0604B
:1010E0000090009840F00070009000980860FFE7C2
:1010F00003B0704780B582B08DF807009DF90700F6
:1011000004F07EFF02B080BD80B586B08DF8170078
:10111000049103920020029004F08AFF02909DF94E
:101120001700019002980499039A03F0E3F801462E
:10113000019804F085FF06B080BD000080B582B044
:101140000190019804F09EFF02B080BD80B584B08C
:1011500002900191029820B9FFE701208DF80F005D
:101160001BE1019842F20001C4F20201096801F09A
:101170000701884216D9FFE742F20000C4F20200DC
:10118000016821F00701019A11430160006800F035
:1011900007000199884204D0FFE701208DF80F0075
:1011A000FBE0FFE702980078800700282AD5FFE7D8
:1011B000029800784007002809D5FFE741F20401B2
:1011C000C4F20201086840F4E0600860FFE702989A
:1011D00000780007002809D5FFE741F20401C4F2B6
:1011E0000201086840F460500860FFE741F2040122
:1011F000C4F20201086820F0F000029A92681043DD
:101200000860FFE702980078C007002860D0FFE779
:101210000298406801280ED1FFE741F20000C4F2B5
:10122000020000688003002804D4FFE701208DF845
:101230000F00B2E021E00298406802280ED1FFE7DB
:1012400041F20000C4F2020000688001002804D4CA
:10125000FFE701208DF80F009FE00DE041F2000054
:10126000C4F2020000688007002804D4FFE70120D0
:101270008DF80F0091E0FFE7FFE741F20401C4F2AF
:101280000201086820F00300029A526810430860C7
:10129000FFF7D6FC0090FFE741F20400C4F2020021
:1012A000006800F00C0002994968B0EB810F0ED085
:1012B000FFE7FFF7C5FC0099401A41F289318842E7
:1012C00004D3FFE703208DF80F0066E0E4E7FFE7B3
:1012D000019842F20001C4F20201096801F007011D
:1012E000884216D2FFE742F20000C4F20200016811
:1012F00021F00701019A11430160006800F0070026
:101300000199884204D0FFE701208DF80F0044E0E6
:10131000FFE702980078400700280CD5FFE741F26C
:101320000401C4F20201086820F4E060029AD26865
:1013300010430860FFE702980078000700280DD5E9
:10134000FFE741F20401C4F20201086820F4605092
:10135000029A126940EAC2000860FFE700F04CF808
:1013600041F20401C4F202010968C9B20A0948F64F
:101370007011C0F60001895CC84040F20401C2F25D
:101380000001086040F21400C2F200000068FFF79C
:1013900047FE00208DF80F00FFE79DF80F0004B016
:1013A00080BD000040F20400C2F2000000687047F7
:1013B00080B5FFF7F7FF41F20401C4F202010968AA
:1013C000C1F3022248F68011C0F60001895CC840D2
:1013D00080BD000080B5FFF7E5FF41F20401C4F2D3
:1013E00002010968C1F3C22248F68011C0F600016B
:1013F000895CC84080BD000086B000200590049044
:1014000003900290019041F20400C4F202000068CF
:101410000590059800F00C000146009100283FD08F
:10142000FFE70098042804D0FFE70098082806D0BA
:1014300037E041F20020C0F27A00019037E00598D1
:10144000C0F3834148F60820C0F60000405C0290DB
:101450009DF81600C007C0B1FFE741F20400C4F2D6
:1014600002000068C0F3404148F61820C0F60000B2
:10147000405C0490029841F20021C0F27A01484396
:101480000499B0FBF1F0039007E0029840F60011D8
:10149000C0F23D0148430390FFE70398019006E046
:1014A000FFE741F20020C0F27A000190FFE70198C7
:1014B00006B0704780B586B00490049820B9FFE765
:1014C00001208DF817002EE304980078C00700284B
:1014D00000F0AE80FFE741F20400C4F202000068B1
:1014E00000F00C00042813D0FFE741F20400C4F21E
:1014F0000200006800F00C0008281BD1FFE741F251
:101500000400C4F202000068C003002812D5FFE7FF
:1015100041F20000C4F2020000688003002808D5F0
:10152000FFE70498406820B9FFE701208DF8170015
:10153000F9E27CE0FFE704984068B0F5803F09D10C
:10154000FFE741F20001C4F20201086840F4803074
:10155000086032E00498406868B9FFE741F2000192
:10156000C4F20201086820F480300860086820F4A2
:101570008020086020E004984068B0F5A02F0DD1CD
:10158000FFE741F20001C4F20201086840F4802044
:101590000860086840F4803008600CE041F2000107
:1015A000C4F20201086820F480300860086820F462
:1015B00080200860FFE7FFE7FFE7FFE70498406847
:1015C000D0B1FFE7FFF73CFB0390FFE741F20000DB
:1015D000C4F202000068800300280CD4FFE7FFF784
:1015E0002FFB0399401A652804D3FFE703208DF8E9
:1015F000170098E2EAE719E0FFF722FB0390FFE704
:1016000041F20000C4F202000068800300280CD5FB
:10161000FFE7FFF715FB0399401A652804D3FFE79E
:1016200003208DF817007EE2EAE7FFE7FFE7FFE718
:10163000049800788007002840F18D80FFE741F290
:101640000400C4F20200006810F00C0F13D0FFE792
:1016500041F20400C4F20200006800F00C00082807
:1016600029D1FFE741F20400C4F202000068C00380
:10167000002820D4FFE741F20000C4F20200006815
:101680008007002809D5FFE704980069012804D0E5
:10169000FFE701208DF8170045E241F20001C4F296
:1016A0000201086820F0F800049A526940EAC2007A
:1016B0000860FFE74EE00498006958B3FFE7002197
:1016C000C4F2422101200860FFF7BAFA0390FFE755
:1016D00041F20000C4F202000068800700280CD428
:1016E000FFE7FFF7ADFA0399401A032804D3FFE799
:1016F00003208DF8170016E2EAE741F20001C4F278
:101700000201086820F0F800049A526940EAC20019
:1017100008601EE00021C4F2422100200860FFF7AB
:101720008FFA0390FFE741F20000C4F20200006864
:10173000800700280CD5FFE7FFF782FA0399401ACB
:10174000032804D3FFE703208DF81700EBE1EAE755
:10175000FFE7FFE7FFE7049800780007002848D577
:10176000FFE70498806918B3FFE740F28041C4F2B4
:10177000422101200860FFF763FA0390FFE741F27E
:101780002400C4F202000068800700280CD4FFE7A0
:10179000FFF756FA0399401A032804D3FFE7032002
:1017A0008DF81700BFE1EAE7012002F0DBFD1FE042
:1017B00040F28041C4F2422100200860FFF740FA65
:1017C0000390FFE741F22400C4F2020000688007A2
:1017D00000280CD5FFE7FFF733FA0399401A0328D6
:1017E00004D3FFE703208DF817009CE1EAE7FFE749
:1017F000FFE7049800784007002840F1D880FFE711
:1018000000208DF8070041F21C00C4F202000068BD
:10181000C000002813D4FFE7FFE741F21C00C4F228
:101820000200016841F080510160006800F08050C2
:1018300000900098FFE701208DF80700FFE747F2CE
:101840000000C4F200000068C005002822D4FFE7B1
:1018500047F20001C4F20001086840F4807008609B
:10186000FFF7EEF90390FFE747F20000C4F2000033
:101870000068C00500280CD4FFE7FFF7E1F90399E1
:10188000401A652804D3FFE703208DF817004AE1CA
:10189000EAE7FFE7FFE70498C068012809D1FFE7FE
:1018A00041F22001C4F20201086840F00100086022
:1018B00031E00498C06868B9FFE741F22001C4F242
:1018C0000201086820F001000860086820F00400A8
:1018D00008601FE00498C06805280DD1FFE741F2B9
:1018E0002001C4F20201086840F0040008600868A2
:1018F00040F0010008600CE041F22001C4F2020156
:10190000086820F001000860086820F00400086002
:10191000FFE7FFE7FFE7FFE70498C068E0B1FFE7F4
:10192000FFF78EF90390FFE741F22000C4F20200B6
:101930000068800700280ED4FFE7FFF781F90399BC
:10194000401A41F28931884204D3FFE703208DF821
:101950001700E8E0E8E71BE0FFF772F90390FFE704
:1019600041F22000C4F202000068800700280ED572
:10197000FFE7FFF765F90399401A41F28931884280
:1019800004D3FFE703208DF81700CCE0E8E7FFE77A
:101990009DF80700012809D1FFE741F21C01C4F2BC
:1019A0000201086820F080500860FFE7FFE7049814
:1019B000C069002800F0B380FFE741F20400C4F2E0
:1019C0000200006800F00C00082800F08280FFE7A9
:1019D0000498C06902285CD1FFE76021C4F242216B
:1019E00000200860FFF72CF90390FFE741F20000A8
:1019F000C4F202000068800100280CD5FFE7FFF761
:101A00001FF90399401A032804D3FFE703208DF838
:101A1000170088E0EAE70498006AB0F5803F0CD12F
:101A2000FFE741F20401C4F20201086820F400302B
:101A3000049A926810430860FFE741F20401C4F27F
:101A40000201086820F47410049B1A6A5B6A1A4346
:101A5000104308606021C4F2422101200860FFF7B2
:101A6000EFF80390FFE741F20000C4F202000068C3
:101A7000800100280CD4FFE7FFF7E2F80399401A31
:101A8000032804D3FFE703208DF817004BE0EAE7B3
:101A90001EE06021C4F2422100200860FFF7D0F868
:101AA0000390FFE741F20000C4F2020000688001E9
:101AB00000280CD5FFE7FFF7C3F80399401A032865
:101AC00004D3FFE703208DF817002CE0EAE7FFE7D7
:101AD00024E00498C069012804D1FFE701208DF8B3
:101AE000170020E041F20400C4F2020000680290F6
:101AF000029800F480300499096A884208D1FFE70F
:101B0000029800F470100499496A884204D0FFE7F3
:101B100001208DF8170006E0FFE7FFE7FFE7002050
:101B20008DF81700FFE79DF8170006B080BD000094
:101B300080B582B00190FEF7E3FB02B080BD0000EB
:101B400081B0009001B0704783B00190009101987E
:101B5000406E800F009908700198406EC0F383605A
:101B6000009948700198406EC0F301600099887038
:101B70000198B0F866000099C8700198406E000A9C
:101B8000009908710198406E009948710198806E23
:101B9000000D0099C8800198806EC0F30340009941
:101BA00008720198B0F86800C00B0099487201985B
:101BB000806EC0F38030009988720198806EC0F307
:101BC00040300099C8720198806EC0F300300099CF
:101BD00008730099002048730198406C00284BD18D
:101BE000FFE70199886EC96E6FF39F20800040EA7D
:101BF0009170009908610198C06EC0F3C2600099AD
:101C000008750198C06EC0F302600099487501988C
:101C1000C06EC0F34250009988750198C06EC0F341
:101C200082400099C8750198C06EC0F3C230009917
:101C30000876009800690130019948650098007E97
:101C400000F00700811C012000FA01F3019A516D98
:101C5000594351650099097A01F00F0188400199B3
:101C600088650199486D8A6D520A5043C86501998B
:101C70004FF40070086635E00198406C01281DD1D2
:101C8000FFE70198816E01F03F01B0F86E0040EA75
:101C9000014000990861009801694FF4806000EBF1
:101CA0008120019948650199486DC86501994FF4F3
:101CB000007088650199886D086612E001980168D6
:101CC00040F2FF50C0F2400088630199886B40F0F9
:101CD000805088630199012081F834008DF80B0051
:101CE00073E0FFE70198C06EC0F38030009948763A
:101CF0000198C06EC0F3C610009988760198C06E36
:101D000000F07F000099C8760198006FC00F00991D
:101D100008770198006FC0F34170009948770198E7
:101D2000006FC0F38260009988770198006FC0F35C
:101D300083500099C8770198006FC0F34050009914
:101D400081F820000099002081F821000199096F95
:101D5000C1F30041009A82F822100199B1F8701085
:101D6000C90B009A82F823100199096FC1F38031E1
:101D7000009A82F824100199096FC1F34031009A4A
:101D800082F825100199096FC1F30031009A82F899
:101D900026100199096FC1F38121009A82F827105A
:101DA0000199096FC1F30121009A82F82810019965
:101DB00091F870104908009A82F82910009A0121C0
:101DC00082F82A108DF80B00FFE79DF80B0003B096
:101DD0007047000082B0019000910198406C00991A
:101DE00008600198806C009948600198C06C009967
:101DF00088600198006D0099C8600198406D009955
:101E000008610198806D009948610198C06D009942
:101E100088610198006E0099C861002002B0704787
:101E200080B584B00390002000900398694603F0C9
:101E30000DFA0190019830B1FFE7019A0399886B80
:101E400010438863FFE70098C0F343200290029894
:101E500004B080BD80B584B003900398006B0190FE
:101E600003980068406B81B20020B0EBD13F0AD0EC
:101E7000FFE79DF804000007002804D5FFE703985A
:101E800003F096F976E103980068406B00F48071E6
:101E90000020B0EB112F00F09280FFE7039801685B
:101EA0004FF48070886303980168C86B4CF23A1253
:101EB0009043C86303980168C86A20F00100C862B3
:101EC0009DF80400000700283ED5FFE79DF80400B8
:101ED0008007002806D4FFE79DF80400800600284C
:101EE00012D5FFE70398006802F060FC02900298A8
:101EF00048B1FFE7029A0399886B104388630398FF
:101F0000FFF71EFEFFE7FFE70398016840F23A5033
:101F100088630399012081F8340003990020086345
:101F20009DF80400C00730B9FFE79DF80400800762
:101F3000002804D5FFE7039800F040FC03E0039875
:101F400000F044FCFFE739E09DF80400000600289B
:101F500032D5FFE79DF804008006002812D5FFE780
:101F60000398006802F022FC0290029848B1FFE753
:101F7000029A0399886B104388630398FFF7E0FD8A
:101F8000FFE7FFE79DF80400C007A0B9FFE79DF851
:101F90000400800700280ED4FFE703980168C86A90
:101FA00020F00800C8620399012081F834000398EA
:101FB00000F00CFCFFE700E0FFE7FFE7D9E0039843
:101FC0000068406B00F480410020B0EB913F0AD0E4
:101FD000FFE79DF804000007002804D5FFE70398F9
:101FE00003F05CF9C4E003980068406B10F03A0F0E
:101FF00000F0BC80FFE703980068406B00F002012E
:102000000020B0EB510F06D0FFE70399886B40F03A
:1020100002008863FFE703980068406B00F0080146
:102020000020B0EBD10F06D0FFE70399886B40F09A
:1020300008008863FFE703980068406B00F0200108
:102040000020B0EB511F06D0FFE70399886B40F0EA
:1020500020008863FFE703980068406B00F01001E0
:102060000020B0EB111F06D0FFE70399886B40F00A
:1020700010008863FFE70398016840F23A708863B4
:1020800003980168C86B40F23A329043C8630398E2
:10209000006802F08BFB02460399886B104388634B
:1020A0009DF80400000700280BD5FFE703990120E5
:1020B00081F834000399002008630398FFF740FD7E
:1020C00053E09DF80400000600284CD5FFE79DF87A
:1020D0000400C006002806D4FFE79DF8040080062F
:1020E000002813D5FFE70398C16B44F67960C0F66A
:1020F000000048630398C06BFEF71CFA28B1FFE7A5
:102100000398C06B02F0B8FEFFE72BE09DF80400D7
:10211000C00730B9FFE79DF804008007002813D5F9
:10212000FFE70398016C44F60D60C0F600004863B9
:102130000398006CFEF7FEF928B1FFE70398006CE6
:1021400002F064FEFFE70CE0039900208863039A25
:10215000012182F83410039908630398FFF7E8FC23
:10216000FFE7FFE700E0FFE7FFE700E0FFE7FFE74B
:10217000FFE7FFE704B080BD80B582B00090009813
:1021800020B9FFE701208DF8070024E0009890F8BF
:10219000340038B9FFE7009900200877009800F074
:1021A000A1F8FFE70099032081F83400009800F0BF
:1021B00017F820B1FFE701208DF807000BE0009928
:1021C0000020886300990863009A012182F8341086
:1021D0008DF80700FFE79DF8070002B080BD000002
:1021E000B0B58EB00C90002004900590069007903A
:1021F0000890762009900C9800680499059A069B2F
:10220000DDF81CC0089C099DEE46CEF80850CEF8BB
:102210000440CEF800C002F00BF98DF82B009DF8B9
:102220002B0020B1FFE701208DF8370056E0A021F8
:10223000C4F230210391002008600C98006802F07D
:1022400025F90399012008600220FEF7FFFA0C9897
:1022500002F00EFF0B900B9860B1FFE70C99012084
:1022600081F834000B9B0C9A916B194391638DF8A4
:10227000370033E00C9802F035FE0B900B9860B1FC
:10228000FFE70C99012081F834000B9B0C9A916BAD
:10229000194391638DF8370020E00C9800684FF4E3
:1022A000007102F06DF90B900B9898B1FFE70C9854
:1022B000016840F2FF50C0F2400088630B9A0C990D
:1022C000886B104388630C99012081F834008DF8E5
:1022D000370003E000208DF83700FFE79DF8370056
:1022E0000EB0B0BD80B58CB00B9000200A90099064
:1022F000089007900B98006848F20001C4F20101B1
:10230000884255D1FFE7FFE741F21400C4F2020012
:10231000016841F480610160006800F4806006900B
:102320000698FFE7FFE741F21800C4F202000168D7
:1023300041F010010160006800F010000590059860
:10234000FFE7FFE741F21800C4F20200016841F024
:1023500020010160006800F0200004900498FFE76D
:102360004FF48850079002200090089003200190BD
:102370000A9041F20000C4F2010007A90291FEF7A1
:1023800087FA009A019802990423079308920A9009
:1023900041F20040C4F20100FEF77AFA31200390C6
:1023A00000221146FEF7B0FE0398FEF7A3FEFFE7FA
:1023B0000CB080BD80B594B0DDF858C0129011917A
:1023C00010920F93FEF73CFC079010980390119821
:1023D0000290119848B9FFE71299886B40F00060AD
:1023E000886301208DF84F00E3E1129890F83400E3
:1023F000012840F0D581FFE71299002088630398F7
:102400000F9908441299C96D884209D9FFE71299BA
:10241000886B40F00070886301208DF84F00C8E1A0
:102420001299032081F83400129801680020C862D4
:102430001298406C012804D0FFE7039840020390F3
:10244000FFE74FF0FF3009900F9840020A9090206C
:102450000B9002200C9000200D9001200E901298FD
:10246000006809A901F09CFF0F9802280AD3FFE732
:1024700012990220086312980068039902F0CEF8BE
:10248000089009E0129901200863129800680399E6
:1024900002F0E2F80890FFE70898B0B1FFE7129861
:1024A000016840F2FF50C0F240008863089A129918
:1024B000886B104388631299012081F83400129AC6
:1024C000002111638DF84F0073E10A980490FFE733
:1024D00012980068406B40F22A31084266D1FFE74B
:1024E00012980068406B000400283CD5FFE7049870
:1024F000C8B3FFE700200690FFE70698072831D809
:10250000FFE71298006801F0C9FF0590059802994D
:1025100008700298013002900498013804900598E0
:10252000000A02990870029801300290049801385C
:102530000490BDF8160002990870029801300290CC
:102540000498013804909DF81700029908700298C9
:1025500001300290049801380490FFE7069801309A
:102560000690CAE7FFE7FEF76BFB0799401A16993A
:10257000884203D2FFE71698B8B9FFE712980168BE
:1025800040F2FF50C0F2400088631299886B40F01F
:10259000004088631299012081F8340012990020CC
:1025A000086303208DF84F0003E191E7129800685B
:1025B000406BC005002829D5FFE70F98022825D3D6
:1025C000FFE71298406C03281FD0FFE712980068BD
:1025D00002F0ECF808900898B0B1FFE71298016893
:1025E00040F2FF50C0F240008863089A1299886B4D
:1025F000104388631299012081F83400129A002157
:1026000011638DF84F00D4E0FFE7FFE712980068F0
:10261000406B0007002816D5FFE71298016840F2CA
:10262000FF50C0F2400088631299886B40F00800A8
:1026300088631299012081F83400129A00211163F5
:102640008DF84F00B5E012980068406B80070028B5
:1026500016D5FFE71298016840F2FF50C0F2400023
:1026600088631299886B40F00200886312990120F8
:1026700081F83400129A002111638DF84F0098E020
:1026800012980068406B8006002816D5FFE7129864
:10269000016840F2FF50C0F2400088631299886BD5
:1026A00040F0200088631299012081F83400129ACA
:1026B000002111638DF84F007BE0FFE7FFE7FFE7A4
:1026C000FFE712980068416B002089020029019001
:1026D00006D5FFE70498002818BF01200190FFE706
:1026E0000198C00700284ED0FFE71298006801F05B
:1026F000D5FE059005980299087002980130029065
:102700000498013804900598000A0299087002980C
:1027100001300290049801380490BDF81600029927
:1027200008700298013002900498013804909DF8D6
:10273000170002990870029801300290049801383D
:102740000490FEF77DFA0799401A1699884203D241
:10275000FFE71698B0B9FFE71298016840F2FF5002
:10276000C0F2400088631299886B40F00040886393
:102770001299012081F83400129A002111638DF81A
:102780004F0016E09DE71298016840F23A508863C6
:102790001299012081F8340000208DF84F0008E0E4
:1027A0001299886B40F00050886301208DF84F002B
:1027B000FFE79DF84F0014B080BD000080B582B0E7
:1027C0000190FDF7FFFD02B080BD000080B582B032
:1027D0000190FDF719FE02B080BD000080B592B0F7
:1027E000DDF850C010900F910E920D93FEF728FA6D
:1027F00005900E9801900F9800900F9848B9FFE748
:102800001099886B40F00060886301208DF84700C4
:1028100086E1109890F83400012840F07881FFE7B5
:1028200010990020886301980D9908441099C96D8A
:10283000884209D9FFE71099886B40F000708863DF
:1028400001208DF847006BE11099032081F83400D6
:10285000109801680020C8621098406C012804D0CC
:10286000FFE7019840020190FFE74FF0FF3007902B
:102870000D98400208909020099000200A900B903B
:1028800001200C901098006807A901F089FD0D98AF
:1028900002280AD3FFE710992020086310980068E7
:1028A000019901F0A1FF069009E01099102008633A
:1028B00010980068019901F0B5FF0690FFE70698AF
:1028C000B0B1FFE71098016840F2FF50C0F240003D
:1028D0008863069A1099886B1043886310990120C9
:1028E00081F83400109A002111638DF8470017E138
:1028F00008980290FFE710980068406B40F21A3188
:1029000008426DD1FFE710980068406B4004002832
:1029100043D5FFE7029800283FD0FFE7002004904E
:10292000FFE70498072837D8FFE70098007803905E
:1029300000980130009002980138029000980178C8
:10294000039840EA0120039000980130009002981B
:102950000138029000980178039840EA0140039002
:102960000098013000900298013802900098017898
:10297000039840EA016003900098013000900298AB
:10298000013802901098006803A901F0B1FDFFE73B
:10299000049801300490C4E7FFE7FEF751F9059968
:1029A000401A1499884203D2FFE71498B8B9FFE798
:1029B0001098016840F2FF50C0F240008863069A08
:1029C0001099886B104388631099012081F83400B6
:1029D00010990020086303208DF84700A0E08AE7E3
:1029E00010980068406BC005002829D5FFE70D98B6
:1029F000022825D3FFE71098406C03281FD0FFE77B
:102A00001098006801F0D2FE06900698B0B1FFE77A
:102A10001098016840F2FF50C0F240008863069AA7
:102A20001099886B104388631099012081F8340055
:102A3000109A002111638DF8470071E0FFE7FFE76E
:102A400010980068406B0007002816D5FFE7109823
:102A5000016840F2FF50C0F2400088631099886B13
:102A600040F0080088631099012081F83400109A22
:102A7000002111638DF8470052E010980068406B08
:102A80008007002816D5FFE71098016840F2FF5034
:102A9000C0F2400088631099886B40F002008863A0
:102AA0001099012081F83400109A002111638DF8EB
:102AB000470035E010980068406BC006002816D526
:102AC000FFE71098016840F2FF50C0F240008863B1
:102AD0001099886B40F0100088631099012081F8EC
:102AE0003400109A002111638DF8470018E0FFE7C9
:102AF000FFE7FFE71098016840F23A5088631099A9
:102B0000012081F8340000208DF8470008E010997A
:102B1000886B40F00050886301208DF84700FFE784
:102B20009DF8470012B080BD80B582B00190019839
:102B300002F002FD02B080BD81B0009001B070478C
:102B400081B0009001B0704785B003900291FFE71B
:102B5000039890F83C00012804D1FFE702208DF88B
:102B600013006DE00399012081F83C00FFE7FFE7C7
:102B70000399022081F83D000398006840680190A5
:102B80000398006880680090019820F07000019020
:102B90000298016801980843019001980399096817
:102BA00048600398006842F60041C4F2010188427F
:102BB0002AD0FFE70398006843F20041C4F2010104
:102BC000884221D0FFE703980068B0F1804F1BD006
:102BD000FFE70398006840F20041C4F20001884218
:102BE00012D0FFE70398006840F60001C4F200012C
:102BF000884209D0FFE70398006840F60041C4F21C
:102C0000000188420ED1FFE7009820F0800000907C
:102C10000298416800980843009000980399096859
:102C20008860FFE70399012081F83D00FFE70399E1
:102C3000002081F83C00FFE700208DF81300FFE73B
:102C40009DF8130005B0704780B582B000900098E1
:102C500020B9FFE701208DF807003FE0009890F8C9
:102C60003D0040B9FFE70099002081F83C00009842
:102C700000F038F8FFE70099022081F83D00009944
:102C800051F8040B02F0CEFC0099012081F84600B7
:102C9000FFE70099012081F83E00009981F83F008C
:102CA000009981F84000009981F84100FFE7FFE7B3
:102CB0000099012081F84200009981F843000099B1
:102CC00081F84400009981F84500FFE70099012050
:102CD00081F83D0000208DF80700FFE79DF8070010
:102CE00002B080BD80B588B007900798006840F2B8
:102CF0000041C4F20001884210D1FFE7FFE741F232
:102D00001C00C4F20200016841F002010160006889
:102D100000F0020006900698FFE75FE00798006861
:102D200040F60001C4F20001884210D1FFE7FFE73E
:102D300041F21C00C4F20200016841F0040101608C
:102D4000006800F0040005900598FFE745E007984B
:102D5000006841F20001C4F20001884219D1FFE786
:102D6000FFE741F21C00C4F20200016841F01001CB
:102D70000160006800F0100004900498FFE736201E
:102D8000029000221146FEF7BFF90298FEF7B2F951
:102D900022E00798006841F20041C4F20001884235
:102DA00019D1FFE7FFE741F21C00C4F202000168FD
:102DB00041F020010160006800F0200003900398BA
:102DC000FFE73720019000221146FEF79DF9019898
:102DD000FEF790F9FFE7FFE7FFE7FFE708B080BDE8
:102DE00083B00190019890F83D00012804D0FFE7DE
:102DF00001208DF80B0059E00199022081F83D0077
:102E000001980168C86840F00100C8600198006836
:102E100042F60041C4F2010188422AD0FFE701983E
:102E2000006843F20041C4F20101884221D0FFE76B
:102E300001980068B0F1804F1BD0FFE7019800684F
:102E400040F20041C4F20001884212D0FFE701982D
:102E5000006840F60001C4F20001884209D0FFE793
:102E60000198006840F60041C4F20001884212D186
:102E7000FFE701980068806800F007000090009864
:102E8000062807D0FFE701980168086840F00100B4
:102E90000860FFE706E001980168086840F001005B
:102EA0000860FFE700208DF80B00FFE79DF80B009E
:102EB00003B0704780B586B00490039100208DF870
:102EC0000B00FFE7049890F83C00012804D1FFE7CD
:102ED00002208DF81700ABE00499012081F83C0036
:102EE000FFE7FFE70499022081F83D00049800689D
:102EF00080680190019820F077000190019820F4FB
:102F00007F400190019804990968886003980068DF
:102F10000090002872D0FFE7009810286ED0FFE7DD
:102F2000009820286AD0FFE70098302866D0FFE795
:102F30000098402855D0FFE70098502837D0FFE789
:102F40000098602840D0FFE7009870280BD0FFE77A
:102F50000098B0F5805F05D0FFE70098B0F5005FFE
:102F600016D052E055E004980068039B5A689968AF
:102F7000DB6802F0F7FB0498006880680190019814
:102F800040F077000190019804990968886040E05A
:102F900004980068039B5A689968DB6802F0E2FBBA
:102FA00004980168886840F48040886031E00498A3
:102FB0000068039A5168D26802F0C8FD049800685E
:102FC000502102F0E9FB24E004980068039A51685C
:102FD000D26802F0E3FD04980068602102F0DCFB97
:102FE00017E004980068039A5168D26802F0AEFDB9
:102FF00004980068402102F0CFFB0AE004980068C2
:103000000399096802F0C8FB03E001208DF80B006A
:10301000FFE70499012081F83D00FFE704990020B3
:1030200081F83C00FFE79DF80B008DF81700FFE7E3
:103030009DF8170006B080BD81B0009001B07047C8
:1030400080B582B0019001980068006900F002012B
:103050000020B0EB510F28D0FFE701980068C0684E
:1030600000F002010020B0EB510F1DD0FFE70198E6
:1030700001686FF00200086101990120087701984A
:1030800000688069800720B1FFE70198FFF7D4FF4F
:1030900006E0019800F096F9019800F08BFAFFE73E
:1030A000019900200877FFE7FFE7019800680069B1
:1030B00000F004010020B0EB910F29D0FFE7019848
:1030C0000068C06800F004010020B0EB910F1ED032
:1030D000FFE7019801686FF0040008610199022080
:1030E000087701980068806910F4407F04D0FFE7FA
:1030F0000198FFF7A1FF06E0019800F063F901983D
:1031000000F058FAFFE7019900200877FFE7FFE792
:1031100001980068006900F008010020B0EBD10FB1
:1031200028D0FFE701980068C06800F0080100207F
:10313000B0EBD10F1DD0FFE7019801686FF00800D8
:10314000086101990420087701980068C069800728
:1031500020B1FFE70198FFF76FFF06E0019800F04C
:1031600031F9019800F026FAFFE70199002008776D
:10317000FFE7FFE701980068006900F010010020F8
:10318000B0EB111F29D0FFE701980068C06800F07C
:1031900010010020B0EB111F1ED0FFE7019801685D
:1031A0006FF0100008610199082008770198006805
:1031B000C06910F4407F04D0FFE70198FFF73CFF9F
:1031C00006E0019800F0FEF8019800F0F3F9FFE73F
:1031D000019900200877FFE7FFE701980068006980
:1031E000C00780B1FFE701980068C068C00748B118
:1031F000FFE7019801686FF001000861019800F095
:10320000DDF9FFE7FFE7019800680069C1B200201F
:10321000B0EBD11F13D0FFE701980068C068C1B2BE
:103220000020B0EBD11F09D0FFE7019801686FF0D3
:10323000800008610198FFF77FFCFFE7FFE7019836
:103240000068006900F040010020B0EB911F14D02D
:10325000FFE701980068C06800F040010020B0EB73
:10326000911F09D0FFE7019801686FF040000861E5
:10327000019800F0BBF9FFE7FFE7019800680069DB
:1032800000F020010020B0EB511F14D0FFE701989F
:103290000068C06800F020010020B0EB511F09D089
:1032A000FFE7019801686FF0200008610198FFF7BF
:1032B00047FCFFE7FFE702B080BD000080B58CB09F
:1032C0000B9000200A900990089007900B980068D6
:1032D00040F20041C4F20001884239D1FFE7FFE724
:1032E00041F21800C4F20200016841F004010160DB
:1032F000006800F0040006900698FFE7FFE741F23F
:103300001800C4F20200016841F008010160006881
:1033100000F0080005900598FFE7C0200790022004
:10332000019008900A9040F60000C4F2010007A93D
:103330000291FDF7ADFA01980299032207920890D5
:103340000A9040F60040C4F20100FDF7A1FA37E010
:103350000B98006840F60001C4F2000188422ED1AB
:10336000FFE7FFE741F21800C4F20200016841F0F4
:1033700020010160006800F0200004900498FFE73D
:103380004FF440500790022008900A9041F200400C
:10339000C4F2010007A9FDF77BFAFFE70421C4F29C
:1033A000010108680390039840F0E06003900398DF
:1033B00040F48050039003980860FFE7FFE7FFE7C1
:1033C0000CB080BD81B0009001B0704780B586B070
:1033D00004900391029200208DF80700FFE7049803
:1033E00090F83C00012804D1FFE702208DF8170077
:1033F00089E00499012081F83C00FFE7FFE702988B
:1034000000900C2800F270800099DFE801F0076D51
:103410006D6D206D6D6D3A6D6D6D53000498006893
:10342000039902F0CFF904980168886940F0080018
:10343000886104980168886920F004008861039815
:1034400002690498016888691043886150E0049813
:103450000068039902F02EFA04980168886940F424
:103460000060886104980168886920F48060886140
:103470000398026904980168886940EA022088611B
:1034800036E004980068039902F090FA0498016805
:10349000C86940F00800C86104980168C86920F054
:1034A0000400C8610398026904980168C869104360
:1034B000C8611DE004980068039902F0F3FA0498CB
:1034C0000168C86940F40060C86104980168C8696F
:1034D00020F48060C8610398026904980168C86993
:1034E00040EA0220C86103E001208DF80700FFE7F1
:1034F000FFE70499002081F83C00FFE79DF80700F2
:103500008DF81700FFE79DF8170006B080BD00009A
:1035100080B582B00090009820B9FFE701208DF8B7
:1035200007003FE0009890F83D0040B9FFE70099A0
:10353000002081F83C00009800F038F8FFE700997F
:10354000022081F83D00009951F8040B02F06AF85E
:103550000099012081F84600FFE70099012081F8D9
:103560003E00009981F83F00009981F840000099E1
:1035700081F84100FFE7FFE70099012081F8420050
:10358000009981F84300009981F84400009981F87E
:103590004500FFE70099012081F83D0000208DF8EB
:1035A0000700FFE79DF8070002B080BD81B00090E2
:1035B00001B0704781B0009001B0704780B582B013
:1035C00001900198009005F08BF90146009888421F
:1035D0000AD1FFE740F2CC21C2F2000108684FF6A1
:1035E000FF7210440860FFE702B080BD81B0009018
:1035F00001B0704782B00190ADF8021002B0704780
:1036000081B0009001B0704780B592B011901198D0
:1036100000680068109011980068C0680F901198B9
:10362000006840690E9000200D900C90109800F0FA
:103630000F000D900D9888B9FFE79DF840008006B7
:1036400000280AD5FFE79DF83C008006002804D535
:10365000FFE7119802F03AFBE9E1FFE70D98002837
:1036600000F0C280FFE79DF83800C00738B9FFE7D7
:10367000BDF83C0010F4907F00F0B680FFE79DF8A5
:103680004000C00758B1FFE79DF83D00C00730B1CA
:10369000FFE71199486C40F001004864FFE79DF88E
:1036A0004000400700280BD5FFE79DF83800C00711
:1036B00030B1FFE71199486C40F002004864FFE721
:1036C0009DF84000800700280BD5FFE79DF83800E3
:1036D000C00730B1FFE71199486C40F0040048641E
:1036E000FFE79DF840000007002811D5FFE79DF88F
:1036F0003C008006002805D4FFE79DF83800C0078D
:1037000030B1FFE71199486C40F008004864FFE7CA
:103710001198406C002866D0FFE79DF840008006B5
:1037200000280AD5FFE79DF83C008006002804D554
:10373000FFE7119802F0CAFAFFE7119800684069A4
:10374000C0F380100C901198406C0007002804D43E
:10375000FFE70C9800283ED0FFE7119802F058FAD6
:10376000119800684069400600282FD5FFE7FFE761
:10377000FFE71198006850E8050F20F040000B901B
:10378000FFE70B991198026842E805100028F0D174
:10379000FFE7FFE71198C06B98B1FFE71198C16B85
:1037A00045F6F130C0F6000048631198C06BFCF795
:1037B000C1FE28B1FFE71198C06B416B8847FFE756
:1037C00003E01198FFF71CFFFFE703E01198FFF7F4
:1037D00017FFFFE706E01198FFF712FF119900208D
:1037E0004864FFE7FFE722E11198006B012840F0F1
:1037F000FE80FFE79DF84000C006002840F1F780FA
:10380000FFE79DF83C00C006002840F1F080FFE78C
:10381000FFE700200A901198006800680A9011984C
:10382000006840680A900A98FFE7119800684069AC
:103830004006002840F18180FFE71198C06B0068C6
:103840004068ADF82600BDF82600002874D0FFE7D8
:10385000BDF826001199898D88426DDAFFE7BDF821
:1038600026001199C8851198C06B8069202858D00E
:10387000FFE7FFE7FFE71198006850E8030F20F427
:1038800080700890FFE708991198026842E80310D9
:103890000028F0D1FFE7FFE7FFE7FFE71198006896
:1038A00050E8050F20F001000790FFE707991198F5
:1038B000026842E805100028F0D1FFE7FFE7FFE7C4
:1038C000FFE71198006850E8050F20F040000690CF
:1038D000FFE706991198026842E805100028F0D128
:1038E000FFE7FFE71199202081F84200119900209D
:1038F0000863FFE7FFE71198006850E8030F20F026
:1039000010000590FFE705991198026842E803103E
:103910000028F0D1FFE7FFE71198C06BFCF7CCFD62
:10392000FFE71199022048631198818DC28D891A91
:1039300089B2FFF75FFEFFE779E01199888DC98DA5
:10394000401AADF812001198C08D00284ED0FFE744
:10395000BDF81200002849D0FFE7FFE7FFE7119804
:10396000006850E8030F20F490700390FFE703997C
:103970001198026842E803100028F0D1FFE7FFE742
:10398000FFE7FFE71198006850E8050F20F00100FD
:103990000290FFE702991198026842E8051000289A
:1039A000F0D1FFE7FFE71199202081F8420011993B
:1039B00000200863FFE7FFE71198006850E8030F55
:1039C00020F010000190FFE701991198026842E889
:1039D00003100028F0D1FFE7FFE7119902204863A8
:1039E0001198BDF81210FFF705FEFFE71FE09DF8E4
:1039F0004000000600280AD5FFE79DF83C000006BD
:103A0000002804D5FFE7119802F0A6FA0FE09DF810
:103A10004000400600280AD5FFE79DF83C0040061C
:103A2000002804D5FFE7119802F03CF9FFE712B037
:103A300080BD000080B582B00090009820B9FFE7FB
:103A400001208DF8070040E00098806908B1FFE789
:103A500000E0FFE7009890F8410040B9FFE70099C7
:103A6000002081F84000009800F034F8FFE700994A
:103A7000242081F8410000980168C86820F40050B3
:103A8000C860009802F0D8F900980168086920F42D
:103A90009040086100980168486920F02A00486158
:103AA00000980168C86840F40050C8600099002080
:103AB0004864009A202182F84110009A82F842104E
:103AC000009948638DF80700FFE79DF8070002B0F2
:103AD00080BD000080B594B013900020129011902A
:103AE00010900F901398006843F60001C4F2010192
:103AF000884239D1FFE7FFE741F21800C4F2020023
:103B0000016841F480410160006800F480400E903B
:103B10000E98FFE7FFE741F21800C4F202000168C7
:103B200041F004010160006800F004000D900D9860
:103B3000FFE74FF400700F900220109003201290C6
:103B400040F60000C4F2010006900FA90791FCF7AF
:103B50009FFE069807994FF480620F920022109200
:103B60001192FCF795FEA2E01398006844F2004120
:103B7000C4F20001884241D1FFE7FFE741F21C0097
:103B8000C4F20200016841F400310160006800F4F1
:103B900000300C900C98FFE7FFE741F21800C4F2E8
:103BA0000200016841F004010160006800F00400B7
:103BB0000B900B98FFE704200F9002201090032039
:103BC000129040F60000C4F2010002900FA9039188
:103BD000FCF75EFE0298039908220F9200220492DD
:103BE00010921192FCF754FE049A2620059011467B
:103BF000FDF78AFA0598FDF77DFA57E013980068FB
:103C000044F60001C4F2000188424ED1FFE7FFE70D
:103C100041F21C00C4F20200016841F480210160FD
:103C2000006800F480200A900A98FFE7FFE741F25D
:103C30001800C4F20200016841F020010160006830
:103C400000F0200009900998FFE74FF480700F9072
:103C5000022010900320129041F20040C4F20100B3
:103C600000900FA90191FCF713FE009801994FF401
:103C700000720F92002210921192FCF709FEFFE7EA
:103C80000421C4F2010108680890089820F030006F
:103C90000890089840F0E0600890089840F03000E4
:103CA000089008980860FFE7FFE7FFE7FFE714B018
:103CB00080BD000080B584B002900191ADF8022073
:103CC000029890F84200202817D1FFE7019820B110
:103CD000FFE7BDF8020020B9FFE701208DF80F00D3
:103CE0000FE002990020086302980199BDF80220B4
:103CF00002F000F98DF80F0003E002208DF80F00AC
:103D0000FFE79DF80F0004B080BD000080B582B0D1
:103D100001900198009000F031F801460098884227
:103D200003D1FFE700F016F8FFE702B080BD000006
:103D300080B582B001900198009004F0E9F9014645
:103D40000098884203D1FFE704F0DAF9FFE702B0F8
:103D500080BD000080B582B040F2D820C2F20000E1
:103D60000190007804F064FA019940F2B070C2F258
:103D700000000122FFF79EFF02B080BD40F69400D4
:103D8000C2F2000000687047FFE7FEE780B548F622
:103D90001C20C0F6000040F29601C2F20001FCF7C0
:103DA00041FB40F68801C2F20001087080BD0000AE
:103DB00080B590B000200F900E900D900C90FFE712
:103DC00041F21800C4F20200016841F010010160E4
:103DD000006800F010000B900B98FFE7FFE741F23E
:103DE0001800C4F20200016841F00401016000689B
:103DF00000F004000A900A98FFE7FFE741F218007C
:103E0000C4F20200016841F008010160006800F09E
:103E1000080009900998FFE7FFE741F21800C4F293
:103E20000200016841F020010160006800F02000FC
:103E300008900898FFE741F20000C4F201000190E9
:103E40004FF40051009100220392FCF7E1FE039A27
:103E500040F60000C4F20100059030210791FCF704
:103E6000D7FE009A019803990C92012202920D92BA
:103E70000E91022104910F910CA90691FCF708FD07
:103E8000DDF808C0039B049A05980699DDF81CE04C
:103E9000CDF830E0CDF834C00E930F92FCF7F8FC6B
:103EA00010B080BD80B582B040F21850C2F2000060
:103EB000019045F20041C4F20001016041F6802109
:103EC000C0F20601416000218160C1604FF4804270
:103ED000026141618161C1610162FCF7B7FE18B105
:103EE000FFE7FCF797FAFFE702B080BD80B582B02C
:103EF00040F26C50C2F20000019045F60001C4F29D
:103F00000001016041F68021C0F2060141600021FC
:103F10008160C1604FF48042026141618161C16191
:103F20000162FCF793FE18B1FFE7FCF773FAFFE7B5
:103F300002B080BD40F2C051C2F2000148F2000060
:103F4000C4F201000860002048608860C860086111
:103F5000486103208861704780B58EB000210091D0
:103F60000D910C910B910A9109910891079106917D
:103F70000591049103910291019140F24460C2F2D3
:103F8000000040F20042C4F2000202604722426098
:103F900081604FF6FF72C26001618161FEF754FEDD
:103FA00018B1FFE7FCF736FAFFE74FF480500A90AC
:103FB00040F24460C2F200000AA9FEF77BFF18B18C
:103FC000FFE7FCF727FAFFE740F24460C2F2000087
:103FD000FFF79EFA18B1FFE7FCF71CFAFFE7002095
:103FE0000890099040F24460C2F2000008A9FEF770
:103FF000ABFD18B1FFE7FCF70DFAFFE76020019079
:10400000002202920392059240F24460C2F2000044
:1040100001A9FFF7DBF918B1FFE7FCF7FBF9FFE7B0
:1040200040F24460C2F2000001A90422FFF7CEF979
:1040300018B1FFE7FCF7EEF9FFE740F24460C2F287
:10404000000001A90822FFF7C1F918B1FFE7FCF74A
:10405000E1F9FFE740F24460C2F2000001A90C223E
:10406000FFF7B4F918B1FFE7FCF7D4F9FFE740F226
:104070004460C2F20000FFF721F90EB080BD0000DD
:1040800080B58EB0002100910D910C910B910A9199
:10409000099108910791069105910491039102916C
:1040A000019140F28C60C2F2000040F60002C4F2BE
:1040B000000202604722426081604FF6FF72C260D8
:1040C00001618161FEF7C0FD18B1FFE7FCF7A2F9BD
:1040D000FFE74FF480500A9040F28C60C2F200007B
:1040E0000AA9FEF7E7FE18B1FFE7FCF793F9FFE72F
:1040F00040F28C60C2F20000FFF70AFA18B1FFE745
:10410000FCF788F9FFE700200890099040F28C60E6
:10411000C2F2000008A9FEF717FD18B1FFE7FCF78F
:1041200079F9FFE760200190002202920392059244
:1041300040F28C60C2F2000001A9FFF747F918B104
:10414000FFE7FCF767F9FFE740F28C60C2F200007E
:1041500001A90422FFF73AF918B1FFE7FCF75AF971
:10416000FFE740F28C60C2F20000FFF7A7F80EB044
:1041700080BD000080B582B000210191009140F225
:10418000D460C2F2000041F20002C4F200020260F8
:104190004722426081604FF6FF71C16080218161DA
:1041A000FEF752FD18B1FFE7FCF734F9FFE70020F6
:1041B0000090019040F2D460C2F200006946FEF720
:1041C000C3FC18B1FFE7FCF725F9FFE702B080BD9B
:1041D00080B582B000210191009140F21C70C2F2C2
:1041E000000041F20042C4F2000202604722426035
:1041F00081604FF6FF71C16080218161FEF724FD6F
:1042000018B1FFE7FCF706F9FFE7002000900190E6
:1042100040F21C70C2F200006946FEF795FC18B12E
:10422000FFE7FCF7F7F8FFE702B080BD80B582B08A
:1042300040F26870C2F20000019043F60001C4F23F
:10424000010101604FF4E131416000218160C160F2
:1042500001610C2242618161C161FFF7EBFB18B182
:10426000FFE7FCF7D7F8FFE702B080BD80B582B06A
:1042700040F2B070C2F20000019044F20041C4F27A
:10428000000101604FF4E131416000218160C160B3
:1042900001610C2242618161C161FFF7CBFB18B162
:1042A000FFE7FCF7B7F8FFE702B080BD80B582B04A
:1042B00040F2F870C2F20000019044F60001C4F22E
:1042C000000101604FF4E131416000218160C16073
:1042D00001610C2242618161C161FFF7ABFB18B142
:1042E000FFE7FCF797F8FFE702B080BDFFE7FEE7C6
:1042F000FFE7FEE788B0079006910592079800F067
:10430000070004900498C0F10700052803D3FFE7D5
:104310000420019004E00498C0F107000190FFE739
:104320000198039004980430062803D8FFE7002082
:10433000009003E0049803380090FFE70098029093
:1043400006980399012202FA01F101390840029B03
:10435000984005999A40013A1140084308B07047C7
:104360007047000082B00190019840F20401C2F24F
:1043700000010968C90844F6D352C1F26202A1FBE8
:104380000221890948430090FFE700BFFFE700983A
:10439000411E00910028F8D1FFE702B070470000ED
:1043A00083B0029001910020009001990968029A5F
:1043B000516201994968029A9162019A9168D2F812
:1043C0000CC01369526941EA0C0119430A43009970
:1043D000114300910299C96A21F0F701009A114333
:1043E000029AD16203B0704781B0009000980069D2
:1043F000C0B201B07047000081B000900098006822
:1044000000F0030001B0704783B002900191029860
:1044100001990844143000900098006803B0704778
:1044200080B540F2C050C2F20000FDF713FD80BD20
:10443000B0B588B00E9CDDF834E0DDF830C00794EC
:10444000CDF818E0CDF814C00493039202910190C6
:10445000002000900299DDF80CC0049B059A41EA07
:104460000C0119431143069A1143079A0A43009914
:10447000114300910199496847F6FF629143009A00
:104480001143019A516008B0B0BD000081B00090A6
:10449000009903200860002001B0704781B00090AF
:1044A0000098D0F8800001B07047000083B00290FF
:1044B00001910020009001990968029A9160019A87
:1044C0005168D2F808C0D368126941EA0C01194357
:1044D0000A430099114300910299C96840F6FF729E
:1044E0009143009A1143029AD16003B070470000D3
:1044F00082B001900091009800680199C1F8800095
:10450000002002B07047000080B58AB00990089181
:1045100008980390372001900490402005900020D7
:1045200006904FF480600790099803A9FFF7BEFF3B
:104530000199099841F2883200F0C0F9029002987E
:104540000AB080BD80B588B007900691069800211A
:10455000C8F21001084301902920029040200390E6
:10456000002004904FF480600590079801A9FFF7A0
:104570009DFF079800F01AFB0090009808B080BDDE
:1045800080B58AB009900891089803901020019096
:10459000049040200590002006904FF48060079022
:1045A000099803A9FFF782FF0199099841F288321F
:1045B00000F084F9029002980AB080BD80B588B0FE
:1045C0000790002002900390049005904FF48060C3
:1045D0000690079802A9FFF769FF079800F040F9D5
:1045E0000190019808B080BD80B588B007904FF465
:1045F000D570029008200390402004900020059080
:104600004FF480600690079802A9FFF74FFF0798C4
:1046100000F0A0FB0190019808B080BD80B58AB081
:10462000099008910898039012200190049040206E
:104630000590002006904FF480600790099803A928
:10464000FFF734FF0199099841F2883200F036F9FA
:10465000029002980AB080BD80B58AB00990089196
:1046600008980390112001900490402005900020AC
:1046700006904FF480600790099803A9FFF716FF92
:104680000199099841F2883200F018F902900298D5
:104690000AB080BD80B58CB00B9009930892089841
:1046A0000390072001900490402005900020069080
:1046B0004FF4806007900B9803A9FFF7F7FE01996C
:1046C0000B9841F2883200F0F9F8029002980CB091
:1046D00080BD000080B588B00790002002900221C4
:1046E0000391C021049105904FF4806006900798D3
:1046F00002A9FFF7DBFE079800F004FA0190019889
:1047000008B080BD80B588B00790069106980190EA
:1047100009200290C0200390002004904FF4806094
:104720000590079801A9FFF7C1FE079800F0EAF984
:104730000090009808B080BD80B58AB009900891BB
:10474000089803900D2001900490402005900020CF
:1047500006904FF480600790099803A9FFF7A6FE22
:104760000199099841F2883200F0A8F80290029865
:104770000AB080BD80B58AB00990089100200390EE
:104780000321019104914021059106904FF480602E
:104790000790099803A9FFF789FE01990998089ADB
:1047A00000F04EFA029002980AB080BD80B588B041
:1047B0000790002002900C21009103914021049168
:1047C00005904FF480600690079802A9FFF76EFEEF
:1047D000009907984EF20012C0F2F55200F06EF800
:1047E0000190019808B080BD80B58AB00990089109
:1047F0000898039019200190049040200590002013
:1048000006904FF480600790099803A9FFF74EFEC9
:104810000199099841F2883200F050F8029002980C
:104820000AB080BD80B58AB00990089108980390BD
:1048300018200190049040200590002006904FF42D
:1048400080600790099803A9FFF730FE0199099845
:1048500041F2883200F032F8029002980AB080BD2E
:1048600083B0019040F20400C2F200000068C0086A
:1048700044F6D351C1F26201A0FB0110800941F25C
:10488000883148430090FFE70098411E009120B90D
:10489000FFE74FF0004002900CE0FFE70198406B0B
:1048A00000060028F0D5FFE70199C52088630020A5
:1048B0000290FFE7029803B07047000080B588B00F
:1048C00006908DF817100492049840F20401C2F289
:1048D00000010968C90844F6D352C1F26202A1FB83
:1048E0000221890948430190FFE70198411E019187
:1048F00020B9FFE74FF000400790FFE00698406BBB
:104900000290FFE701209DF8081011F0450F00907C
:1049100006D0FFE79DF80900C0F3C0000090FFE754
:104920000098C0070028E0D1FFE70698406B4007D9
:10493000002805D5FFE70699042088630790DDE08D
:104940000698406BC00728B1FFE7069901208863ED
:104950000790D3E0FFE7FFE70699C5208863069834
:10496000FFF742FD9DF81710884203D0FFE70120B2
:104970000790C3E006980021FFF746FD03900398D7
:104980004EF20801CFF6FF51084203D1FFE70020A5
:104990000790B3E09DF80F000006002804D5FFE75C
:1049A0004FF000700790A9E09DF80F004006002826
:1049B00003D5FFE740200790A0E09DF80F00800698
:1049C000002803D5FFE78020079097E09DF80F00AF
:1049D000C006002804D5FFE74FF4807007908DE0F3
:1049E0009DF80F000007002804D5FFE74FF4007082
:1049F000079083E09DF80F004007002804D5FFE7EB
:104A00004FF48060079079E09DF80F00C00720B157
:104A1000FFE74FF40060079070E09DF80E0000067D
:104A2000002804D5FFE74FF48050079066E09DF81A
:104A30000E004006002804D5FFE74FF40050079011
:104A40005CE09DF80E008006002804D5FFE74FF4D7
:104A50008040079052E09DF80E00C006002804D563
:104A6000FFE74FF40040079048E09DF80E00400734
:104A7000002804D5FFE74FF4003007903EE09DF892
:104A80000E008007002804D5FFE74FF48020079030
:104A900034E09DF80E00C00720B1FFE74FF400207E
:104AA00007902BE09DF80D000006002804D5FFE7D5
:104AB0004FF48010079021E09DF80D00400600287B
:104AC00004D5FFE74FF40010079017E09DF80D00A4
:104AD0008006002804D5FFE74FF4800007900DE022
:104AE0009DF80C000007002804D5FFE74FF40000F4
:104AF000079003E04FF480300790FFE7079808B075
:104B000080BD000085B0039040F20400C2F20000B6
:104B10000068C00844F6D351C1F26201A0FB011045
:104B2000800941F2883148430190FFE70198411E16
:104B3000019120B9FFE74FF00040049033E0039863
:104B4000406B0290FFE701209DF8081011F0450F1F
:104B5000009006D0FFE79DF80900C0F3C000009068
:104B6000FFE70098C0070028E0D1FFE70398406BFB
:104B70004007002805D5FFE70399042088630490C7
:104B800011E00398406BC00728B1FFE703990120AB
:104B90008863049007E00399C5208863FFE7FFE777
:104BA00000200490FFE7049805B0704785B003909B
:104BB00040F20400C2F200000068C00844F6D3517D
:104BC000C1F26201A0FB0110800941F28831484323
:104BD0000190FFE70198411E019120B9FFE74FF0D6
:104BE0000040049028E00398406B0290FFE701200A
:104BF0009DF8081011F0450F009006D0FFE79DF8D2
:104C00000900C0F3C0000090FFE70098C00700282B
:104C1000E0D1FFE70398406B4007002805D5FFE788
:104C2000039904208863049006E00399C5208863F3
:104C3000FFE700200490FFE7049805B070470000EC
:104C400080B588B006908DF81710049240F20400E9
:104C5000C2F200000068C00844F6D351C1F26201FC
:104C6000A0FB0110800941F2883148430190FFE721
:104C70000198411E019120B9FFE74FF000400790D5
:104C800065E00698406B0290FFE701209DF8081050
:104C900011F0450F009006D0FFE79DF80900C0F322
:104CA000C0000090FFE70098C0070028E0D1FFE7B0
:104CB0000698406B4007002805D5FFE706990420B9
:104CC0008863079043E00698406BC00728B1FFE770
:104CD000069901208863079039E0FFE7FFE706980F
:104CE000FFF782FB9DF81710884203D0FFE70120F1
:104CF00007902CE00699C520886306980021FFF7ED
:104D000083FB03909DF80D0010F0E00F07D1FFE743
:104D1000BDF80E00049908800020079017E09DF868
:104D20000D004006002804D5FFE74FF4005007901F
:104D30000DE09DF80D000006002804D5FFE74FF4B4
:104D40008050079003E04FF480300790FFE707980A
:104D500008B080BD85B0039040F20400C2F20000AC
:104D60000068C00844F6D351C1F26201A0FB0110F3
:104D7000800941F2883148430190FFE70198411EC4
:104D8000019120B9FFE74FF0004004903AE003980A
:104D9000406B0290FFE701209DF8081011F0450FCD
:104DA000009006D0FFE79DF80900C0F3C000009016
:104DB000FFE70098C0070028E0D1FFE70398406BA9
:104DC0004007002805D5FFE7039904208863049075
:104DD00018E00398406BC00728B1FFE70399012052
:104DE000886304900EE0FFE7FFE70398406B4006FE
:104DF000002804D5FFE7039940208863FFE70020DF
:104E00000490FFE7049805B07047000080B584B0B7
:104E100003900398406A02900298016840F23A5069
:104E200088630298FCF7FCFF01900299012081F849
:104E300034000299002008630198062804D0FFE797
:104E4000019805280AD1FFE702980068FFF7AEFC39
:104E500002460299886B10438863FFE70298806BD3
:104E600020B9FFE70298FCF763FE03E00298FCF725
:104E700067FEFFE704B080BD80B584B0039003985F
:104E8000406A02900298016840F23A5088630298A2
:104E9000FCF7C6FF01900299012081F834000299C5
:104EA000002008630198062804D0FFE70198052830
:104EB0000AD1FFE702980068FFF778FC02460299E2
:104EC000886B10438863FFE70298806B20B9FFE787
:104ED0000298FCF72DFE03E00298FCF731FEFFE795
:104EE00004B080BDB0B592B010900120ADF80E00B6
:104EF00010980068FFF780FA20B9FFE74FF0806054
:104F00001190B1E01098406C03282AD0FFE7109868
:104F10000068FFF7DFFB0490049818B1FFE70498DE
:104F20001190A1E0109800680021FFF76DFA109928
:104F30004867109800680421FFF766FA109988679F
:104F4000109800680821FFF75FFA1099C867109859
:104F500000680C21FFF758FA1099C1F88000FFE7AC
:104F6000FFE71098406C03280ED0FFE71098006808
:104F70000DF10E01FFF7FEFB0490049818B1FFE756
:104F80000498119070E0FFE71098406C03282FD030
:104F9000FFE7BDF80E001099086510990868096DC3
:104FA0000904FFF7AFFB0490049818B1FFE70498D9
:104FB000119059E0109800680021FFF725FA109928
:104FC0004866109800680421FFF71EFA1099886659
:104FD000109800680821FFF717FA1099C866109812
:104FE00000680C21FFF710FA10990867FFE7FFE748
:104FF000109800680421FFF707FA000D1099C864A3
:10500000109805A9FCF7A0FD20B1FFE74FF08050F4
:10501000119029E010990868096D0A040023FFF730
:1050200039FB0490049818B1FFE7049811901BE035
:10503000DDF840E0DEF80000DEF80410DEF80820BD
:10504000DEF80C30DEF810C0DEF81440DEF8185040
:10505000EE46CEF80850CEF80440CEF800C0FFF778
:10506000E7F900201190FFE7119812B0B0BD0000E1
:1050700080B588B0069000200590049003900698B3
:105080000068FFF79BFA0290029818B1FFE70298B8
:10509000079089E006980068FFF7A6FA0290029848
:1050A00078B1FFE706990020886406980068FFF74A
:1050B00085FA0290029818B1FFE70298079073E012
:1050C00003E0069901208864FFE70698806C0128B8
:1050D0000ED1FFE7069800680021FFF715FA02904D
:1050E000029820B1FFE74FF0805007905CE0FFE7A7
:1050F000FFE7059900204FF6FE729142019006D815
:10510000FFE70398B0FA80F040090190FFE70198AB
:10511000C00770B3FFE7069800680021FFF7F4F9B5
:105120000290029818B1FFE7029807903CE00698B9
:1051300000680021CCF21011FFF704FA02900298E7
:1051400020B1FFE74FF0805007902DE006980068EF
:105150000021FFF759F9049004994FF0FF3000EB5C
:10516000D170B0FA80F040090390059801300590A5
:10517000BFE705984FF6FF71884204D3FFE74FF071
:105180008070079010E09DF813004006002804D5B9
:10519000FFE706990120486403E00699002048646F
:1051A000FFE700200790FFE7079808B080BD0000E8
:1051B00080B586B005900598806A01900598C06A10
:1051C0000290029800283FD0FFE700200490FFE7FC
:1051D0000498072831D8FFE705980068FFF75EF9C3
:1051E000039003980199087001980130019002988A
:1051F000013802900398000A019908700198013063
:105200000190029801380290BDF80E0001990870D3
:105210000198013001900298013802909DF80F002A
:1052200001990870019801300190029801380290AC
:10523000FFE7049801300490CAE701980599886255
:1052400002980599C862FFE706B080BD80B586B0B8
:1052500004900391039820B9FFE74FF00060059098
:1052600018E004990868096D0904FFF765FA0290CF
:10527000029818B1FFE7029805900BE004980068C7
:1052800000210191FFF7C0F801460198039A1160CF
:105290000590FFE7059806B080BD000080B586B098
:1052A00005900598006A01900598406A029002985E
:1052B000002845D0FFE700200490FFE70498072866
:1052C00037D8FFE7019800780390019801300190EA
:1052D00002980138029001980178039840EA012071
:1052E00003900198013001900298013802900198D2
:1052F0000178039840EA0140039001980130019041
:1053000002980138029001980178039840EA016000
:10531000039001980130019002980138029005989D
:10532000006803A9FFF7E4F8FFE704980130049050
:10533000C4E7019805990862029805994862FFE759
:1053400006B080BD80B582B08DF8070040F2000144
:10535000C2F2000101200870FAF7ECFF48B9FFE73C
:1053600040F20001C2F20001087800F0FE0008706F
:10537000FFE740F20000C2F20000007802B080BDFA
:1053800080B58CB08DF82E008DF82D100A9201207A
:105390008DF8270040F20000C2F200000078C0073C
:1053A00020B1FFE703208DF82F0035E09DF82D0098
:1053B00001460091032826D80099DFE801F0020693
:1053C000101A00208DF8270021E001A8FAF79AFFB3
:1053D00007980A99086000208DF8270017E001A8B7
:1053E000FAF790FF08980A99088000208DF82700A6
:1053F0000DE001A8FAF786FF08980A9908600020D6
:105400008DF8270003E004208DF82700FFE79DF8C2
:1054100027008DF82F00FFE79DF82F000CB080BD0E
:1054200080B586B08DF81600049103920293012096
:105430008DF8070048F2A060C0F2010000900498C7
:105440000399029A4EF20013C0F2F553FAF79AFF4D
:1054500098B9FFE7FFE7FAF761FF50B1FFE700985F
:10546000411E009120B9FFE701208DF8170009E0E7
:10547000F1E700208DF80700FFE79DF807008DF8A1
:105480001700FFE79DF8170006B080BD80B582B019
:105490008DF8070040F20001C2F2000101200870FF
:1054A000FAF73CFF48B9FFE740F20001C2F2000101
:1054B000087800F0FE000870FFE740F20000C2F23A
:1054C0000000007802B080BD80B586B08DF816006F
:1054D00004910392029301208DF8070048F2A06026
:1054E000C0F20100009004980399029A4EF2001352
:1054F000C0F2F553FAF768FF98B9FFE7FFE7FAF74C
:105500000DFF50B1FFE70098411E009120B9FFE761
:1055100001208DF8170009E0F1E700208DF8070061
:10552000FFE79DF807008DF81700FFE79DF81700CB
:1055300006B080BD7047000080B582B00090009832
:105540000138B0F1807F03D3FFE70120019019E01B
:10555000009801384EF21401CEF2000108604FF0BD
:10556000FF300F2100F06CFD4EF21801CEF2000169
:10557000002008604EF21002CEF2000207211160F6
:105580000190FFE7019802B080BD000080B5FBF7F5
:1055900025FD80BD80B590B006A800902821FAF7BF
:1055A0004BFE009800230593049303930293019309
:1055B000012206924FF48031079108930A92022249
:1055C0000D920E914FF4E0110F91FBF773FF18B19C
:1055D000FFE7FAF71FFFFFE70F200190022102917A
:1055E000002003904FF480620492059001A8FBF71D
:1055F000ADFD18B1FFE7FAF70DFFFFE710B080BD72
:105600007047000080B540F2D460C2F20000FDF7A0
:1056100017FD80BD80B540F21C70C2F20000FDF79E
:105620000FFD80BD83B00290019102980068009048
:10563000029842F60041C4F20101884225D0FFE7FA
:10564000029843F20041C4F2010188421DD0FFE7F5
:105650000298B0F1804F18D0FFE7029840F2004165
:10566000C4F20001884210D0FFE7029840F6000122
:10567000C4F20001884208D0FFE7029840F60041DA
:10568000C4F2000188420AD1FFE7009820F07000C0
:10569000009001984168009808430090FFE7029845
:1056A00042F60041C4F20101884225D0FFE702988A
:1056B00043F20041C4F2010188421DD0FFE7029885
:1056C000B0F1804F18D0FFE7029840F20041C4F2D9
:1056D0000001884210D0FFE7029840F60001C4F2B2
:1056E0000001884208D0FFE7029840F60041C4F26A
:1056F000000188420AD1FFE7009820F44070009032
:105700000198C168009808430090FFE7009820F0D6
:105710008000019949690843009000980299086047
:10572000019880680299C8620198006802998862AD
:10573000029842F60041C4F20101884208D0FFE716
:10574000029843F20041C4F20101884205D1FFE70B
:105750000198006902990863FFE7029901204861F6
:1057600003B0704785B004900391029201930498AE
:1057700080680090009820F47F4000900398029980
:10578000019A41EA022101430098084300900098E1
:105790000499886005B0704783B002900191029827
:1057A00080680090009820F07000009001980099A7
:1057B000084340F00700009000980299886003B009
:1057C0007047000085B0049003910498006A01902E
:1057D0000499086A20F0010008620498406800906B
:1057E000049880690290029820F07000029002985C
:1057F00020F0030002900398016802980843029089
:10580000019820F0020001900398816801980843F4
:105810000190049842F60041C4F20101884208D088
:10582000FFE7049843F20041C4F2010188420ED11F
:10583000FFE7019820F0080001900398C1680198E3
:1058400008430190019820F004000190FFE70498BC
:1058500042F60041C4F20101884208D0FFE70498F3
:1058600043F20041C4F20101884213D1FFE70098DE
:1058700020F480700090009820F40070009003984D
:105880004169009808430090039881690098084393
:105890000090FFE700980499486002980499886195
:1058A000039840680499486301980499086205B018
:1058B0007047000085B0049003910498006A01903D
:1058C0000499086A20F0100008620498406800906B
:1058D000049880690290029820F4E04002900298B7
:1058E00020F44070029003980168029840EA012079
:1058F0000290019820F0200001900398816801989F
:1059000040EA01100190049842F60041C4F20101FE
:10591000884208D0FFE7049843F20041C4F2010135
:1059200088420FD1FFE7019820F080000190039892
:10593000C168019840EA01100190019820F04000F0
:105940000190FFE7049842F60041C4F20101884249
:1059500008D0FFE7049843F20041C4F201018842F5
:1059600015D1FFE7009820F480600090009820F4A3
:105970000060009003984169009840EA810000901F
:1059800003988169009840EA81000090FFE7009841
:1059900004994860029804998861039840680499C2
:1059A000886301980499086205B0704785B0049037
:1059B00003910498006A01900499086A20F48070A9
:1059C00008620498406800900498C06902900298A8
:1059D00020F070000290029820F0030002900398DB
:1059E0000168029808430290019820F40070019029
:1059F00003988168019840EA01200190049842F6DA
:105A00000041C4F20101884208D0FFE7049843F244
:105A10000041C4F2010188420FD1FFE7019820F450
:105A2000006001900398C168019840EA012001904C
:105A3000019820F480600190FFE7049842F600414D
:105A4000C4F20101884208D0FFE7049843F2004104
:105A5000C4F20101884215D1FFE7009820F480507C
:105A60000090009820F4005000900398416900983D
:105A700040EA0110009003988169009840EA011003
:105A80000090FFE700980499486002980499C86163
:105A9000039840680499C86301980499086205B0A6
:105AA0007047000085B0049003910498006A01904B
:105AB0000499086A20F480500862049840680090B5
:105AC0000498C0690290029820F4E0400290029885
:105AD00020F44070029003980168029840EA012087
